:100000000C9462000C948A000C948A000C948A0070
:100010000C948A000C948A000C948A000C948A0038
:100020000C948A000C948A000C948A000C948A0028
:100030000C948A000C948A000C948A000C948A0018
:100040000C9433070C948A000C941A0A0C948A00BE
:100050000C948A000C948A000C948A000C948A00F8
:100060000C948A000C948A000000000024002700F1
:100070002A0000000000250028002B0000000000DE
:1000800023002600290004040404040404040202DA
:100090000202020203030303030301020408102007
:1000A0004080010204081020010204081020000012
:1000B0000007000201000003040600000000000029
:1000C0000000630B11241FBECFEFD8E0DEBFCDBF11
:1000D00013E0A0E0B1E0EEEBF8E102C005900D9274
:1000E000A038B107D9F714E0A0E8B3E001C01D9231
:1000F000A134B107E1F710E0C4ECD0E004C02297CE
:10010000FE010E94220CC23CD107C9F70E94B5062D
:100110000C945D0C0C940000A0E0B0E0E2E9F0E08B
:100120000C942E0CEC01A880B980CA80DB80A1144D
:10013000B104C104D10441F484E2A82E89EDB82EA3
:100140008BE5C82E87E0D82EC601B5012DE133EF2F
:1001500041E050E00E94F10B27EA31E440E050E03A
:100160000E949D0B7B018C01C601B5012DE133EF8F
:1001700041E050E00E94F10BCA01B9012CEE34EFCE
:100180004FEF5FEF0E949D0B6E0D7F1D801F911F33
:1001900097FF04C061507040804090486883798325
:1001A0008A839B839B01AC015F77B901CA01CDB7FC
:1001B000DEB7EAE00C944A0C0E948C00089580E7B8
:1001C00093E00E948C000895609370037093710314
:1001D000809372039093730308950F931F9386E0A7
:1001E00060E870E00E94DA0685E060E070E00E945E
:1001F000DA0683E060E870E00E94DA060EE214E0BE
:10020000C80160E071E00E940A09C80163E171E081
:100210000E9429091F910F9108950F931F9386E063
:1002200060E870E00E94DA0685E060E870E00E9415
:10023000DA0683E060E070E00E94DA060EE214E085
:10024000C80164E171E00E940A09C80163E171E03C
:100250000E9429091F910F9108950F931F9386E023
:100260006FEF70E00E94DA0685E06FE770E00E94B1
:10027000DA0683E060E070E00E94DA060EE214E045
:10028000C8016DE271E00E940A09C80163E171E0F2
:100290000E9429091F910F9108950F931F9386E0E3
:1002A00060E070E00E94DA0685E060E870E00E949D
:1002B000DA0683E060E870E00E94DA060EE214E0FD
:1002C000C80162E471E00E940A09C80163E171E0BB
:1002D0000E9429091F910F9108950F931F9386E0A3
:1002E00060E870E00E94DA0685E060E870E00E9455
:1002F000DA0683E060E870E00E94DA060EE214E0BD
:10030000C80161E671E00E940A09C80163E171E079
:100310000E9429091F910F9108950F931F9386E062
:1003200060E070E00E94DA0685E06FEF70E00E9406
:10033000DA0683E06FEF70E00E94DA060EE214E066
:10034000C80163E771E00E940A09C80163E171E036
:100350000E9429091F910F9108950F931F9386E022
:100360006FEF70E00E94DA0685E060E070E00E94C6
:10037000DA0683E06FEF70E00E94DA060EE214E026
:10038000C80164E871E00E940A09C80163E171E0F4
:100390000E9429091F910F9108950F931F9386E0E2
:1003A0006FEF70E00E94DA0685E06FEF70E00E9468
:1003B000DA0683E060E070E00E94DA060EE214E004
:1003C000C80167E971E00E940A09C80163E171E0B0
:1003D0000E9429091F910F9108950F931F9386E0A2
:1003E00060E070E00E94DA0685E060E070E00E9464
:1003F000DA0683E06FEF70E00E94DA060EE214E0A6
:10040000C80169EA71E00E940A09C80163E171E06C
:100410000E9429091F910F9108950F931F9386E061
:1004200060E070E00E94DA0685E06FEF70E00E9405
:10043000DA0683E060E070E00E94DA060EE214E083
:10044000C80168EB71E00E940A09C80163E171E02C
:100450000E9429091F910F9108950F931F9386E021
:100460006FEF70E00E94DA0685E060E070E00E94C5
:10047000DA0683E060E070E00E94DA060EE214E043
:10048000C80169EC71E00E940A09C80163E171E0EA
:100490000E9429091F910F9108950F931F9386E0E1
:1004A00060E070E00E94DA0685E060E070E00E94A3
:1004B000DA0683E060E070E00E94DA060EE214E003
:1004C000C8016AED71E00E940A09C80163E171E0A8
:1004D0000E9429091F910F9108950F931F9386E0A1
:1004E0006FEF70E00E94DA0685E06FEF70E00E9427
:1004F000DA0683E06FEF70E00E94DA060EE214E0A5
:10050000C80165EF71E00E940A09C80163E171E06A
:100510000E9429091F910F91089580E00E94BC0656
:1005200090938103809380030E947B0728EE33E041
:1005300040E050E00E94CF0B209391033093920350
:1005400040939303509394038CE00E945A08909335
:100550008703809386038EE294E064E172E00E9458
:100560000A09409191035091920360919303709115
:1005700094038EE294E00E94CC098EE294E06CE158
:1005800072E00E940A0960918603709187038EE2EF
:1005900094E00E94020A2091860330918703213063
:1005A000310541F58091880390918903892B11F5DC
:1005B00080918A0390918B03281B390B30938B0316
:1005C00020938A030E947B076093950370939603A0
:1005D00080939703909398036EE170E080E090E041
:1005E0000E94890780918A0390918B03019711F4EF
:1005F0000E946D028EE294E067E272E00E940A09B6
:1006000060918A0370918B038EE294E00E940A0A43
:100610008091860390918703019709F0C5C180916D
:10062000880390918903019709F0BEC180918A03E4
:1006300090918B03019709F0B7C10E947B0720912D
:100640009503309196034091970350919803621B54
:10065000730B840B950B615F754580409040A8F04B
:100660008EE294E060E372E00E940A098EE294E078
:1006700060EF75E50E94020A8EE294E069E472E0A0
:100680000E9429090E94ED008FC10E947B072091E2
:100690009503309196034091970350919803621B04
:1006A000730B840B950B61527E4480409040A8F000
:1006B0008EE294E060E372E00E940A098EE294E028
:1006C00060E27EE40E94020A8EE294E069E472E055
:1006D0000E9429090E940D0167C10E947B07209199
:1006E0009503309196034091970350919803621BB4
:1006F000730B840B950B6155764480409040A8F0B5
:100700008EE294E060E372E00E940A098EE294E0D7
:1007100060E576E40E94020A8EE294E069E472E009
:100720000E9429090E942D013FC10E947B07209150
:100730009503309196034091970350919803621B63
:10074000730B840B950B61587E4380409040A8F05A
:100750008EE294E060E372E00E940A098EE294E087
:1007600060E87EE30E94020A8EE294E069E472E0AF
:100770000E9429090E944D0117C10E947B07209108
:100780009503309196034091970350919803621B13
:10079000730B840B950B615B764380409040A8F00F
:1007A0008EE294E060E372E00E940A098EE294E037
:1007B00060EB76E30E94020A8EE294E069E472E064
:1007C0000E9429090E946D01EFC00E947B072091C1
:1007D0009503309196034091970350919803621BC3
:1007E000730B840B950B615E7E4280409040A8F0B5
:1007F0008EE294E060E372E00E940A098EE294E0E7
:1008000060EE7EE20E94020A8EE294E069E472E009
:100810000E9429090E948D01C7C00E947B07209178
:100820009503309196034091970350919803621B72
:10083000730B840B950B6151774280409040A8F078
:100840008EE294E060E372E00E940A098EE294E096
:1008500060E177E20E94020A8EE294E069E472E0CD
:100860000E9429090E94AD019FC00E947B07209130
:100870009503309196034091970350919803621B22
:10088000730B840B950B61547F4180409040A8F01E
:100890008EE294E060E372E00E940A098EE294E046
:1008A00060E47FE10E94020A8EE294E069E472E073
:1008B0000E9429090E94CD0177C00E947B072091E8
:1008C0009503309196034091970350919803621BD2
:1008D000730B840B950B6157774180409040A8F0D3
:1008E0008EE294E060E372E00E940A098EE294E0F6
:1008F00060E777E10E94020A8EE294E069E472E028
:100900000E9429090E94ED014FC00E947B0720919F
:100910009503309196034091970350919803621B81
:10092000730B840B950B615A7F4080409040A8F078
:100930008EE294E060E372E00E940A098EE294E0A5
:1009400060EA7FE00E94020A8EE294E069E472E0CD
:100950000E9429090E940D0227C00E947B07209156
:100960009503309196034091970350919803621B31
:10097000730B840B950B615D774080409040A0F035
:100980008EE294E060E372E00E940A098EE294E055
:1009900060ED77E00E94020A8EE294E069E472E082
:1009A0000E9429090E942D0280918603909187035D
:1009B000909389038093880380918A0390918B039D
:1009C000892B09F026C10E944D0285E00E94BC06D9
:1009D00090938F0380938E038EE294E06CE472E038
:1009E0000E940A0960918E0370918F038EE294E059
:1009F0000E940A0A80918E0390918F03893C910591
:100A000008F407C10E947B076093990370939A03CF
:100A100080939B0390939C0381E08093900380914B
:100A2000800390918103863491057CF0809182034C
:100A3000909183038634910544F0809184039091D2
:100A40008503863491050CF0E4C080E090E001C09D
:100A500001968A309105E4F390938D0380938C0383
:100A60006CE070E080E090E00E94A90870938D0334
:100A700060938C036530710509F457C066307105C9
:100A8000ACF462307105E1F1633071053CF4672B21
:100A900049F16130710509F07AC02BC063307105EE
:100AA000B1F16430710509F072C038C06830710569
:100AB00009F450C06930710544F466307105E1F104
:100AC0006730710509F063C03EC06A30710509F4F2
:100AD0004FC06A3071050CF444C06B30710509F0E9
:100AE00056C04DC00E946D028EE294E060E672E056
:100AF0004CC00E942D028EE294E068E672E045C090
:100B00000E940D028EE294E06FE672E03EC00E9409
:100B1000ED018EE294E066E772E037C00E94CD01FD
:100B20008EE294E06BE772E030C00E94AD018EE28D
:100B300094E063E872E029C00E948D018EE294E0A7
:100B40006CE872E022C00E946D018EE294E063E9DD
:100B500072E01BC00E944D018EE294E06BE972E0EE
:100B600014C00E942D018EE294E061EA72E00DC093
:100B70000E940D018EE294E06CEA72E006C00E94D1
:100B8000ED008EE294E063EB72E00E9429090E947E
:100B90007B072091990330919A0340919B035091D8
:100BA0009C03621B730B840B950B68547E4E804034
:100BB000904040F0109290038EE294E06CEB72E073
:100BC0000E9429098CE00E945A08019741F4109272
:100BD00090038EE294E065EE72E00E942909809114
:100BE0009003882359F480E090E001C001968A3098
:100BF0009105E4F390938D0380938C0364E670E099
:100C000080E090E00E94890780919003882309F09A
:100C1000BECF8091910390919203A0919303B091E4
:100C2000940320919D0330919E0340919F03509126
:100C3000A003821B930BA40BB50B0797A105B1056D
:100C400008F46EC08EE294E061E173E00E940A094C
:100C500060918203709183038EE294E00E94020A05
:100C60008EE294E06BE373E00E940A0940919D03D9
:100C700050919E0360919F037091A0038EE294E0D7
:100C80000E94CC098EE294E069E473E00E940A09B4
:100C900060918403709185038EE294E00E940A0AB9
:100CA0008EE294E062E573E00E940A09609180039D
:100CB000709181038EE294E00E94020A8EE294E039
:100CC0006BE373E00E940A094091910350919203F3
:100CD00060919303709194038EE294E00E94D00996
:100CE0008091910390919203A0919303B09194030A
:100CF00080939D0390939E03A0939F03B093A003C2
:100D00008091820390918303909385038093840361
:100D10008091800390918103909383038093820359
:100D20006CE271E080E090E00E94890708958EE215
:100D300094E040E855E260E070E00E94570A83E0EA
:100D400061E00E94ED0785E061E00E94ED0786E02A
:100D500061E00E94ED0783E061E00E94ED0781E021
:100D60000E94BC060E94CB0808950E94B3070E940F
:100D700097060E948D02FDCF8F709091740392951B
:100D8000990F990F907C982B90937C0080917A001A
:100D9000806480937A0080917A0086FDFCCF209158
:100DA000780040917900942F80E030E0282B392B97
:100DB000C90108951F93CF93DF93182FEB0161E0D2
:100DC0000E94ED07E12FF0E0E255FF4F8491833060
:100DD00051F480918000806880938000D0938900D6
:100DE000C09388003CC0843051F4809180008062C0
:100DF00080938000D0938B00C0938A0030C08130F4
:100E000039F4209729F184B5806884BDC7BD27C017
:100E1000823039F42097E1F084B5806284BDC8BD8A
:100E20001EC0863041F48091B00080688093B0008D
:100E3000C093B30014C0873041F48091B000806249
:100E40008093B000C093B4000AC0C038D1051CF430
:100E5000812F60E002C0812F61E00E940D08DF91C8
:100E6000CF911F9108951F920F920FB60F921124E8
:100E70002F933F938F939F93AF93BF938091A5033D
:100E80009091A603A091A703B091A8033091A90364
:100E90000196A11DB11D232F2D5F2D3720F02D5759
:100EA0000196A11DB11D2093A9038093A5039093E2
:100EB000A603A093A703B093A8038091A1039091E8
:100EC000A203A091A303B091A4030196A11DB11D9B
:100ED0008093A1039093A203A093A303B093A403D0
:100EE000BF91AF919F918F913F912F910F900FBE26
:100EF0000F901F9018958FB7F8942091A50330910B
:100F0000A6034091A7035091A8038FBFB901CA015E
:100F10000895EF92FF920F931F937B018C018FB77F
:100F2000F8944091A5035091A6036091A703709196
:100F3000A8038FBF2FB7F8948091A5039091A603C3
:100F4000A091A703B091A8032FBF841B950BA60BFC
:100F5000B70BE816F9060A071B0760F71F910F91F8
:100F6000FF90EF900895789484B5826084BD84B535
:100F7000816084BD85B5826085BD85B5816085BD94
:100F8000EEE6F0E0808181608083E1E8F0E080813E
:100F900082608083808181608083E0E8F0E08081EE
:100FA00081608083E1EBF0E0808184608083E0EB0E
:100FB000F0E0808181608083EAE7F0E080818460F6
:100FC0008083808182608083808181608083808152
:100FD000806880831092C1000895282F30E0C901F5
:100FE00086569F4FFC0194912A573F4FF9018491F7
:100FF000882391F0E82FF0E0EE0FFF1FE859FF4F34
:10100000A591B491662329F48C91909589238C93B2
:1010100008958C91892B8C930895482F50E0CA0134
:1010200082559F4FFC012491CA0186569F4FFC01B7
:1010300094914A575F4FFA0134913323D1F122231F
:1010400031F1233021F4809180008F7705C0243066
:1010500031F4809180008F7D8093800018C0213012
:1010600019F484B58F7704C0223021F484B58F7DC4
:1010700084BD0DC0263021F48091B0008F7705C06B
:10108000273029F48091B0008F7D8093B000E32F4A
:10109000F0E0EE0FFF1FEE58FF4FA591B4916623CD
:1010A00029F48C91909589238C9308958C91892BA8
:1010B0008C930895682F70E0CB0182559F4FFC01FF
:1010C0002491CB0186569F4FFC0144916A577F4F74
:1010D000FB019491992319F420E030E038C02223D9
:1010E00031F1233021F4809180008F7705C02430C6
:1010F00031F4809180008F7D8093800018C0213072
:1011000019F484B58F7704C0223021F484B58F7D23
:1011100084BD0DC0263021F48091B0008F7705C0CA
:10112000273029F48091B0008F7D8093B000892F03
:1011300090E0880F991F84589F4FFC01A591B491AE
:101140008C9120E030E0842311F021E030E0C901EF
:101150000895EF92FF920F931F937B018C0161150D
:1011600071058105910529F420E030E040E050E070
:101170000BC00E94DF00A80197010E94F10BAC0197
:10118000CB01DA019C01AD01B901CA011F910F9198
:10119000FF90EF900895009729F0BC0180E090E067
:1011A0000E94E40008950F931F93CF93DF938C0167
:1011B000EB0109C02196D801ED91FC910190F081DD
:1011C000E02DC801099568816623A1F7DF91CF91D1
:1011D0001F910F910895EF92FF920F931F93CF935A
:1011E000DF938C017B01EA010CC0D7016D917D0179
:1011F000D801ED91FC910190F081E02DC801099595
:101200002197209791F7DF91CF911F910F91FF9038
:10121000EF900895DC01ED91FC910280F381E02DC7
:10122000099508950F931F938C01DC01ED91FC91BA
:101230000190F081E02D6DE00995D801ED91FC91D0
:101240000190F081E02DC8016AE009951F910F918E
:1012500008950F931F938C010E940A09C8010E94F0
:1012600012091F910F9108952F923F924F925F9212
:101270006F927F928F929F92AF92BF92CF92DF92A6
:10128000EF92FF920F931F93DF93CF93CDB7DEB70B
:10129000A0970FB6F894DEBF0FBECDBF1C016A0148
:1012A0007B01411551056105710549F4DC01ED91A2
:1012B000FC910190F081E02D60E3099554C08824F1
:1012C00099245401422E55246624772401E010E02D
:1012D0000C0F1D1F080D191DC701B601A3019201B6
:1012E0000E94CF0BF80160830894811C911CA11C03
:1012F000B11CC701B601A30192010E94CF0BC90125
:10130000DA016C017D01C114D104E104F104F1F6AC
:1013100081E0E82EF12CEC0EFD1EE80CF91C3E01DC
:101320000894611C711CD501C4010197A109B10980
:101330006C01C818D90814C0F601EE0DFF1D6081BC
:101340006A3010F4605D01C0695CD101ED91FC91DF
:101350000190F081E02DC10109950894E108F108A0
:101360006E147F0449F7A0960FB6F894DEBF0FBE47
:10137000CDBFCF91DF911F910F91FF90EF90DF9044
:10138000CF90BF90AF909F908F907F906F905F9025
:101390004F903F902F9008952AE00E9434090895BD
:1013A0000F931F938C010E94CC09C8010E9412095F
:1013B0001F910F910895EF92FF920F931F93CF9378
:1013C000DF93EC017A018B0177FF0FC0E881F9818F
:1013D0000190F081E02D6DE2099510950095F09453
:1013E000E094E11CF11C011D111DCE01B801A70103
:1013F0002AE00E943409DF91CF911F910F91FF9055
:10140000EF900895AB01662757FD6095762F0E94F7
:10141000DB0908950F931F938C01AB01662757FDDD
:101420006095762F0E94DB09C8010E9412091F9166
:101430000F9108951F920F920FB60F9211242F93C0
:101440003F934F935F936F937F938F939F93AF934C
:10145000BF93EF93FF934091C600E0912A04F0916F
:101460002B04CF01019660E870E00E94BC0B9C0148
:1014700080912C0490912D042817390739F0E655F6
:10148000FC4F408330932B0420932A04FF91EF916B
:10149000BF91AF919F918F917F916F915F914F918C
:1014A0003F912F910F900FBE0F901F9018955F9254
:1014B0006F927F928F929F92AF92BF92CF92DF9264
:1014C000EF92FF920F931F93CF93DF93EC013A01BA
:1014D0004B01413482E458078FE0680780E07807C9
:1014E0000CF07FC060E874E88EE190E0A401930105
:1014F0000E94F10B2150304040405040CA01B901D8
:1015000022E030E040E050E00E94F10B59016A0116
:10151000A6019501209530954095509594E0220FB5
:10152000331F441F551F9A95D1F760E074E284EF92
:1015300090E00E94F10BCA01B9012FEF30E040E0CA
:1015400050E00E949D0BA40193010E94F10BC90180
:1015500081509F4F181619061CF4522E5A9403C03E
:1015600055245394521A60E079E08DE390E0A40191
:1015700093010E94F10B2150304040405040CA017D
:10158000B90122E030E040E050E00E94F10B2095EC
:1015900030954095509583E0220F331F441F551F0F
:1015A0008A95D1F760E074E284EF90E00E94F10B3D
:1015B000CA01B9012FEF30E040E050E00E949D0BDE
:1015C000A40193010E94F10BC90181509F4F18168D
:1015D00019061CF4822F815002C081E0821B851500
:1015E00000F5E885F98581E090E00A8802C0880F5F
:1015F000991F0A94E2F7808360E079E08DE390E040
:10160000A40193010E94F10B215030404040504012
:10161000CA01B90122E030E040E050E00E94F10B45
:1016200004C0E885F98510829501EC81FD81308345
:10163000EE81FF812083EA85FB85208141E050E037
:10164000CA010E8402C0880F991F0A94E2F7282B62
:101650002083EA85FB852081CA010F8402C0880FA0
:10166000991F0A94E2F7282B2083EA85FB85808165
:10167000088802C0440F551F0A94E2F7842B808328
:10168000DF91CF911F910F91FF90EF90DF90CF905E
:10169000BF90AF909F908F907F906F905F900895D4
:1016A000FC01A085B18521898C9190E0022E02C0B9
:1016B000959587950A94E2F780FFF6CF0484F58527
:1016C000E02D6083089589E793E090932F04809341
:1016D0002E048AEA93E0909331048093300485ECE1
:1016E00090E0909333048093320484EC90E09093E4
:1016F00035048093340480EC90E090933704809319
:10170000360481EC90E0909339048093380486ECA1
:1017100090E090933B0480933A0484E080933C04EF
:1017200083E080933D0487E080933E0485E08093CE
:101730003F0481E0809340040895629FD001739F2D
:10174000F001829FE00DF11D649FE00DF11D929F5D
:10175000F00D839FF00D749FF00D659FF00D99279C
:10176000729FB00DE11DF91F639FB00DE11DF91FC0
:10177000BD01CF011124089597FB092E07260AD039
:1017800077FD04D049D006D000201AF470956195F9
:101790007F4F0895F6F7909581959F4F0895A1E2A8
:1017A0001A2EAA1BBB1BFD010DC0AA1FBB1FEE1FDB
:1017B000FF1FA217B307E407F50720F0A21BB30B26
:1017C000E40BF50B661F771F881F991F1A9469F7A2
:1017D00060957095809590959B01AC01BD01CF01FE
:1017E000089597FB092E05260ED057FD04D0D7DFAC
:1017F0000AD0001C38F450954095309521953F4F04
:101800004F4F5F4F0895F6F79095809570956195CD
:101810007F4F8F4F9F4F0895AA1BBB1B51E107C0FD
:10182000AA1FBB1FA617B70710F0A61BB70B881F70
:10183000991F5A95A9F780959095BC01CD010895FF
:10184000EE0FFF1F0590F491E02D09942F923F9227
:101850004F925F926F927F928F929F92AF92BF92C0
:10186000CF92DF92EF92FF920F931F93CF93DF936C
:10187000CDB7DEB7CA1BDB0B0FB6F894DEBF0FBEC9
:10188000CDBF09942A88398848885F846E847D8416
:101890008C849B84AA84B984C884DF80EE80FD8018
:1018A0000C811B81AA81B981CE0FD11D0FB6F8948E
:0E18B000DEBF0FBECDBFED010895F894FFCF4F
:1018BE00436F6C6F726F20646920706F72706F72FD
:1018CE0061210000436F6C6F726F206469206D613F
:1018DE0072726F6E65206F6C6976612100436F6C5A
:1018EE006F726F206469206172616E63696F6E65DD
:1018FE002100436F6C6F726F20646920666F676C96
:10190E00696120646920746527287465616C2921DA
:10191E0000436F6C6F726F2064692067726967692C
:10192E006F2100436F6C6F726F2064692063696171
:10193E006E6F2100436F6C6F726F206469206D6152
:10194E0067656E74612100436F6C6F726F206469FE
:10195E00206769616C6C6F2100436F6C6F726F2032
:10196E00646920626C752100436F6C6F726F206426
:10197E00692076657264652100436F6C6F726F200B
:10198E00646920726F73736F21005370656E676F99
:10199E002074757474692069206C6564202D3E2056
:1019AE006E65726F00416363656E646F207475744B
:1019BE0074692069206C6564202D3E206269616E19
:1019CE00636F210054656D706F3A200020426F7472
:1019DE00746F6E653A200020537461746F3A200064
:1019EE00426F74746F6E65207072656D75746F20C2
:1019FE007069752720646920006D730044697374E3
:101A0E00616E7A612072696C65766174613A20004C
:101A1E004269616E636F2100526F73736F210056BE
:101A2E00657264652100426C7521004769616C6CBA
:101A3E006F21004D6167656E746121004369616EAF
:101A4E006F210047726967696F21005465616C21CF
:101A5E00004172616E63696F6E6521004F6C69762D
:101A6E00612100506F72706F72612100506173734B
:101A7E0061746F20696C2074656D706F206D617379
:101A8E0073696D6F2E2E2E207370656E676F2074C6
:101A9E007574746F00452720737461746F207072B3
:101AAE00656D75746F20696C20626F74746F7265EA
:101ABE002E2E2E207370656E676F20747574746F82
:101ACE000045736567756F20696C20726573657468
:101ADE002064656C20636F6E7461746F72652E2E58
:101AEE002E206956616C31273A200020416C2073FC
:101AFE0065636F6E646F3A2000206956616C323AEE
:101B0E0020004E756F766F2076616C6F7265206463
:101B1E0069206C756D696E6F73697461273A200068
:101B2E00010000000100000000500BD308EB08007C
:00000001FF
