:100000000C9462000C948A000C948A000C948A0070
:100010000C948A000C948A000C948A000C948A0038
:100020000C948A000C948A000C948A000C948A0028
:100030000C948A000C948A000C948A000C948A0018
:100040000C945D080C948A000C94FF0A0C948A00AE
:100050000C948A000C948A000C948A000C948A00F8
:100060000C948A000C948A000000000024002700F1
:100070002A0000000000250028002B0000000000DE
:1000800023002600290004040404040404040202DA
:100090000202020203030303030301020408102007
:1000A0004080010204081020010204081020000012
:1000B0000007000201000003040600000000000029
:1000C0000000480C11241FBECFEFD8E0DEBFCDBF2B
:1000D00013E0A0E0B1E0E8E8FAE102C005900D927B
:1000E000A632B107D9F713E0A6E2B3E001C01D9232
:1000F000A73EB107E1F710E0C4ECD0E004C02297BE
:10010000FE010E94070DC23CD107C9F70E94DF071C
:100110000C94420D0C940000AEE0B0E0E2E9F0E097
:100120000C94190D0D891E8986E08C831A8309832E
:100130008FEF9FE79E838D839E01275E3F4FCE0109
:1001400001966F89788DA9010E94B0002F813885B2
:10015000020F131FF80110822E96E4E00C94350D67
:10016000ABE0B0E0E6EBF0E00C940B0D3C012B01B2
:100170005A01FC0117821682838181FD03C06FEF53
:100180007FEFC6C19AE0892E1E010894211C311C04
:10019000F3012381F20123FD859123FF81912F013A
:1001A000882309F4B2C1853239F423FD859123FFF8
:1001B00081912F01853229F490E0B3010E94A302BE
:1001C000E7CF982FFF24EE249924FFE1FF15D0F00C
:1001D0009B3269F09C3228F4903259F0933291F4BA
:1001E0000EC09D3249F0903369F441E024C052E0E2
:1001F000F52A84E0F82A28C098E0F92A25C0E0E131
:10020000FE2A22C0F7FC29C0892F80538A3070F45F
:10021000F6FE05C0989C902C1124980E15C0E89C01
:10022000E02C1124E80EF0E2FF2A0EC09E3229F4E1
:10023000F6FC6BC140E4F42A07C09C3619F450E880
:10024000F52A02C0983649F4F20123FD959123FF67
:1002500091912F01992309F0B8CF892F85548330CC
:1002600018F08052833038F444E050E0A40EB51EFC
:100270005FE359830FC0933631F0933779F09335AC
:1002800009F056C020C0F5018081898342E050E02A
:10029000A40EB51E610101E010E012C0F501C0809E
:1002A000D180F6FC03C06FEF7FEF02C0692D70E0D4
:1002B00042E050E0A40EB51EC6010E9498028C01D7
:1002C0005FE7F52214C0F501C080D180F6FC03C0C1
:1002D0006FEF7FEF02C0692D70E042E050E0A40EA6
:1002E000B51EC6010E948D028C0150E8F52AF3FE6E
:1002F00007C01AC080E290E0B3010E94A302EA9412
:100300008E2D90E008171907A8F30EC0F601F7FC30
:100310008591F7FE81916F0190E0B3010E94A302E5
:10032000E110EA94015010400115110579F7EAC077
:10033000943611F0993669F5F7FE08C0F501208171
:1003400031814281538184E090E00AC0F5018081CF
:1003500091819C01442737FD4095542F82E090E025
:10036000A80EB91E9FE6F92257FF09C05095409587
:10037000309521953F4F4F4F5F4FE0E8FE2ACA016D
:10038000B901A1012AE030E00E94CF02D82ED21894
:1003900040C0953729F41F2D1F7E2AE030E01DC094
:1003A0001F2D197F9F3661F0903720F4983509F0A2
:1003B000ACC00FC0903739F0983709F0A6C004C020
:1003C00028E030E00AC0106114FD146020E130E044
:1003D00004C014FD166020E132E017FF08C0F501EB
:1003E000608171818281938144E050E008C0F50111
:1003F00080819181BC0180E090E042E050E0A40E59
:10040000B51EA1010E94CF02D82ED2188FE7F82E78
:10041000F122F6FE0BC05EEFF522D91438F4F4FE9B
:1004200007C0F2FC05C08FEEF82202C01D2D01C0EE
:10043000192DF4FE0DC0FE01ED0DF11D80818033FC
:1004400019F499EEF92208C01F5FF2FE05C003C03F
:100450008F2D867809F01F5F0F2DF3FC14C0F0FE7E
:100460000FC01E1510F09D2C0BC09D2C9E0C911AD8
:100470001E2D06C080E290E0B3010E94A3021F5F20
:100480001E15C0F304C01E1510F4E11A01C0EE24BD
:1004900004FF0FC080E390E0B3010E94A30202FFBB
:1004A0001DC001FD03C088E790E00EC088E590E024
:1004B0000BC0802F867891F001FF02C08BE201C053
:1004C00080E2F7FC8DE290E0B3010E94A30206C037
:1004D00080E390E0B3010E94A3029A94D914C0F380
:1004E000DA94F101ED0DF11D808190E0B3010E94DD
:1004F000A302DD20A9F706C080E290E0B3010E94CC
:10050000A302EA94EE20C1F743CEF301668177811E
:10051000CB012B96E2E10C94270DFC010590615074
:1005200070400110D8F7809590958E0F9F1F089509
:10053000FC016150704001900110D8F780959095B2
:100540008E0F9F1F08950F931F93CF93DF938C01FE
:10055000EB018B8181FF1BC082FF0DC02E813F818B
:100560008C819D812817390764F4E881F981019312
:10057000F983E88306C0E885F985802F0995892BE2
:1005800031F48E819F8101969F838E8302C00FEF8D
:100590001FEFC801DF91CF911F910F910895FA01CC
:1005A000AA27283051F1203181F1E8946F936E7FB2
:1005B0006E5F7F4F8F4F9F4FAF4FB1E03ED0B4E0A3
:1005C0003CD0670F781F891F9A1FA11D680F791FE4
:1005D0008A1F911DA11D6A0F711D811D911DA11DF5
:1005E00020D009F468943F912AE0269F1124301905
:1005F000305D3193DEF6CF010895462F4770405DA0
:100600004193B3E00FD0C9F7F6CF462F4F70405D4E
:100610004A3318F0495D31FD4052419302D0A9F7A9
:10062000EACFB4E0A6959795879577956795BA95A3
:10063000C9F700976105710508959B01AC010A2E69
:1006400006945795479537952795BA95C9F7620F40
:10065000731F841F951FA01D08950F931F9386E09D
:1006600060E070E00E94040885E060E070E00E94B5
:10067000040883E06FEF70E00E94040804ED13E0CB
:10068000C80169EA71E00E940A0AC80163E171E0E9
:100690000E94290A1F910F9108950F931F9386E0DE
:1006A00060E070E00E94040885E06FEF70E00E9457
:1006B000040883E060E070E00E94040804ED13E0A9
:1006C000C80168EB71E00E940A0AC80163E171E0A9
:1006D0000E94290A1F910F9108950F931F9386E09E
:1006E0006FEF70E00E94040885E060E070E00E9417
:1006F000040883E060E070E00E94040804ED13E069
:10070000C80169EC71E00E940A0AC80163E171E066
:100710000E94290A1F910F9108950F931F9386E05D
:1007200060E070E00E94040885E060E070E00E94F4
:10073000040883E060E070E00E94040804ED13E028
:10074000C8016AED71E00E940A0AC80163E171E024
:100750000E94290A1F910F9108950F931F9386E01D
:100760006FEF70E00E94040885E06FEF70E00E9478
:10077000040883E06FEF70E00E94040804ED13E0CA
:10078000C80165EF71E00E940A0AC80163E171E0E7
:100790000E94290A1F910F9108951F939C01162F03
:1007A00084ED93E0B9010E940A0A113031F484ED1E
:1007B00093E063E171E00E94290A1F910895CF92AE
:1007C000DF92EF92FF920F931F93DF93CF93CDB7FA
:1007D000DEB764970FB6F894DEBF0FBECDBF80E0E2
:1007E0000E94E60790932703809326030E94A508A2
:1007F00028EE33E040E050E00E94B40C2093370331
:10080000309338034093390350933A038CE00E94AD
:10081000840990932D0380932C0384ED93E064E18D
:1008200072E00E940A0A40913703509138036091A8
:10083000390370913A0384ED93E00E94CC0A84ED71
:1008400093E06CE172E00E940A0A60912C037091BF
:100850002D0384ED93E00E94F70A20912C03309140
:100860002D032130310541F580912E0390912F0306
:10087000892B11F58091300390913103281B390B9E
:1008800030933103209330030E94A50860933B030B
:1008900070933C0380933D0390933E036EE170E0C0
:1008A00080E090E00E94B308809130039091310382
:1008B000019711F40E942D0387E292E060E00E940C
:1008C000CD0300D000D000D0EDB7FEB731968E0139
:1008D0000F5F1F4FADB7BEB712961C930E931197C3
:1008E00020E3E22E22E0F22EF382E28280913003B6
:1008F00090913103958384830E948C008DB79EB7BD
:1009000006960FB6F8949EBF0FBE8DBFC80161E07A
:100910000E94CD0380912C0390912D03019709F043
:100920002DC180912E0390912F03019709F026C1CC
:100930008091300390913103019709F01FC10E940B
:10094000A50820913B0330913C0340913D03509119
:100950003E03621B730B840B950B61547F418040F7
:100960009040A0F183E392E060E00E94CD0300D0CC
:1009700000D000D0EDB7FEB73196ADB7BEB7129636
:100980001C930E931197F382E28280E49FE195839A
:1009900084830E948C008DB79EB706960FB6F8949C
:1009A0009EBF0FBE8DBFC80160E00E94CD038CE4E6
:1009B00092E061E00E94CD030E94AD0380E090E0F0
:1009C00001C0019688329105E4F3D4C00E94A508C5
:1009D00020913B0330913C0340913D0350913E03F5
:1009E000621B730B840B950B6157774180409040DD
:1009F000A0F183E392E060E00E94CD0300D000D03C
:100A000000D0EDB7FEB73196ADB7BEB712961C93C6
:100A10000E931197F382E28280E797E195838483B6
:100A20000E948C008DB79EB706960FB6F8949EBFB5
:100A30000FBE8DBFC80160E00E94CD038CE492E040
:100A400061E00E94CD030E948D0380E090E001C030
:100A5000019688329105E4F38DC00E94A50820918B
:100A60003B0330913C0340913D0350913E03621B98
:100A7000730B840B950B615A7F4080409040A0F12E
:100A800083E392E060E00E94CD0300D000D000D06C
:100A9000EDB7FEB73196ADB7BEB712961C930E9365
:100AA0001197F382E28280EA9FE0958384830E941B
:100AB0008C008DB79EB706960FB6F8949EBF0FBEFA
:100AC0008DBFC80160E00E94CD038CE492E061E03C
:100AD0000E94CD030E946D0380E090E001C001966A
:100AE00088329105E4F346C00E94A50820913B039B
:100AF00030913C0340913D0350913E03621B730BC8
:100B0000840B950B615D774080409040B8F183E3A2
:100B100092E060E00E94CD0300D000D000D0EDB79D
:100B2000FEB73196ADB7BEB712961C930E931197D0
:100B3000F382E28280ED97E0958384830E948C00AB
:100B40008DB79EB706960FB6F8949EBF0FBE8DBFA9
:100B5000C80160E00E94CD038CE492E061E00E9455
:100B6000CD030E944D0380E090E001C001968832E1
:100B70009105E4F3909333038093320380912C0327
:100B800090912D0390932F0380932E038091300337
:100B900090913103892B09F0CBC00E948D0385E031
:100BA0000E94E60790933503809334038FE492E02C
:100BB00060E00E94CD0300D000D000D0EDB7FEB7BA
:100BC00031968E010F5F1F4FADB7BEB712961C93C3
:100BD0000E93119780E392E0938382838091340394
:100BE00090913503958384830E948C008DB79EB7C6
:100BF00006960FB6F8949EBF0FBE8DBFC80161E088
:100C00000E94CD038091340390913503893C910576
:100C100008F48EC00E94A50860933F0370934003C0
:100C2000809341039093420381E080933603809147
:100C3000260390912703863491057CF08091280348
:100C4000909129038634910544F080912A03909174
:100C50002B03863491050CF06BC080E090E001C05E
:100C600001968A309105E4F380913F03909140030F
:100C70008370907090933303809332038130910599
:100C800079F0823091051CF4892B39F011C0823043
:100C9000910549F0039761F409C00E942D0308C033
:100CA0000E944D0305C00E946D0302C00E94AD0367
:100CB0000E94A50820913F033091400340914103D9
:100CC00050914203621B730B840B950B68547E4E4C
:100CD0008040904038F01092360383E692E061E065
:100CE0000E94CD038CE00E948409019739F4109290
:100CF00036038CE892E061E00E94CD0380913603D8
:100D0000882359F480E090E001C001968A30910573
:100D1000E4F3909333038093320364E670E080E061
:100D200090E00E94B30880913603882309F0C0CF79
:100D30008091370390913803A0913903B0913A0321
:100D40002091430330914403409145035091460361
:100D5000821B930BA40BB50B0797A105B10508F4F3
:100D600000C188EB92E060E00E94CD0300D000D08B
:100D700000D0EDB7FEB731968E010F5F1F4FADB7B4
:100D8000BEB712961C930E93119790E3E92E92E052
:100D9000F92EF382E28280912803909129039583B2
:100DA00084830E948C008DB79EB706960FB6F89488
:100DB0009EBF0FBE8DBFC80160E00E94CD0382EED2
:100DC00092E060E00E94CD03ADB7BEB718970FB6B2
:100DD000F894BEBF0FBEADBFEDB7FEB73196129609
:100DE0001C930E93119780EFC82E82E0D82ED382E9
:100DF000C2828091430390914403A0914503B09136
:100E0000460384839583A683B7830E948C008DB7A5
:100E10009EB708960FB6F8949EBF0FBE8DBFC8014F
:100E200060E00E94CD0383EF92E060E00E94CD037A
:100E300000D000D000D0EDB7FEB73196ADB7BEB749
:100E400012961C930E931197F382E28280912A03EB
:100E500090912B03958384830E948C008DB79EB75D
:100E600006960FB6F8949EBF0FBE8DBFC80161E015
:100E70000E94CD038CEF92E060E00E94CD0300D091
:100E800000D000D0EDB7FEB73196ADB7BEB7129621
:100E90001C930E931197F382E28280912603909126
:100EA0002703958384830E948C008DB79EB7069696
:100EB0000FB6F8949EBF0FBE8DBFC80160E00E94C0
:100EC000CD0382EE92E060E00E94CD03ADB7BEB7E5
:100ED00018970FB6F894BEBF0FBEADBFEDB7FEB703
:100EE000319612961C930E931197D382C2828091F1
:100EF000370390913803A0913903B0913A0384836A
:100F00009583A683B7830E948C008DB79EB7089601
:100F10000FB6F8949EBF0FBE8DBFC80161E00E945E
:100F2000CD038091370390913803A0913903B0919C
:100F30003A038093430390934403A0934503B093F3
:100F40004603809128039091290390932B0380936B
:100F50002A0380912603909127039093290380937D
:100F600028036CE271E080E090E00E94B308649690
:100F70000FB6F894DEBF0FBECDBFCF91DF911F91AA
:100F80000F91FF90EF90DF90CF90089584ED93E064
:100F900040E855E260E070E00E943C0B83E061E0D5
:100FA0000E94170985E061E00E94170986E061E070
:100FB0000E94170983E061E00E94170908950E94CA
:100FC000DD080E94C6070E94DF03FDCF8F7090915D
:100FD0001A039295990F990F907C982B90937C000F
:100FE00080917A00806480937A0080917A0086FDF7
:100FF000FCCF2091780040917900942F80E030E080
:10100000282B392BC90108951F93CF93DF93182FF5
:10101000EB0161E00E941709E12FF0E0E255FF4F7C
:101020008491833051F480918000806880938000A7
:10103000D0938900C09388003CC0843051F48091E3
:101040008000806280938000D0938B00C0938A00E0
:1010500030C0813039F4209729F184B5806884BD8F
:10106000C7BD27C0823039F42097E1F084B5806293
:1010700084BDC8BD1EC0863041F48091B000806838
:101080008093B000C093B30014C0873041F48091C6
:10109000B00080628093B000C093B4000AC0C03832
:1010A000D1051CF4812F60E002C0812F61E00E9415
:1010B0003709DF91CF911F9108951F920F920FB6BC
:1010C0000F9211242F933F938F939F93AF93BF93CE
:1010D00080914B0390914C03A0914D03B0914E032E
:1010E00030914F030196A11DB11D232F2D5F2D3788
:1010F00020F02D570196A11DB11D20934F03809321
:101100004B0390934C03A0934D03B0934E038091F7
:10111000470390914803A0914903B0914A03019677
:10112000A11DB11D8093470390934803A0934903E9
:10113000B0934A03BF91AF919F918F913F912F91AF
:101140000F900FBE0F901F9018958FB7F8942091B5
:101150004B0330914C0340914D0350914E038FBF90
:10116000B901CA010895EF92FF920F931F937B017B
:101170008C018FB7F89440914B0350914C036091D0
:101180004D0370914E038FBF2FB7F89480914B039E
:1011900090914C03A0914D03B0914E032FBF841B3F
:1011A000950BA60BB70BE816F9060A071B0760F7A5
:1011B0001F910F91FF90EF900895789484B582600D
:1011C00084BD84B5816084BD85B5826085BD85B5EB
:1011D000816085BDEEE6F0E0808181608083E1E89A
:1011E000F0E0808182608083808181608083E0E89C
:1011F000F0E0808181608083E1EBF0E080818460B9
:101200008083E0EBF0E0808181608083EAE7F0E0BA
:10121000808184608083808182608083808181601E
:1012200080838081806880831092C1000895282F78
:1012300030E0C90186569F4FFC0194912A573F4FD9
:10124000F9018491882391F0E82FF0E0EE0FFF1F61
:10125000E859FF4FA591B491662329F48C9190959C
:1012600089238C9308958C91892B8C930895482F12
:1012700050E0CA0182559F4FFC012491CA01865655
:101280009F4FFC0194914A575F4FFA0134913323E9
:10129000D1F1222331F1233021F4809180008F7726
:1012A00005C0243031F4809180008F7D80938000D0
:1012B00018C0213019F484B58F7704C0223021F48E
:1012C00084B58F7D84BD0DC0263021F48091B0009F
:1012D0008F7705C0273029F48091B0008F7D8093EF
:1012E000B000E32FF0E0EE0FFF1FEE58FF4FA59187
:1012F000B491662329F48C91909589238C93089559
:101300008C91892B8C930895682F70E0CB018255C6
:101310009F4FFC012491CB0186569F4FFC014491C5
:101320006A577F4FFB019491992319F420E030E034
:1013300038C0222331F1233021F4809180008F774F
:1013400005C0243031F4809180008F7D809380002F
:1013500018C0213019F484B58F7704C0223021F4ED
:1013600084B58F7D84BD0DC0263021F48091B000FE
:101370008F7705C0273029F48091B0008F7D80934E
:10138000B000892F90E0880F991F84589F4FFC016F
:10139000A591B4918C9120E030E0842311F021E0FC
:1013A00030E0C90108950F931F93CF93DF938C0111
:1013B000EB0109C02196D801ED91FC910190F081DB
:1013C000E02DC801099568816623A1F7DF91CF91CF
:1013D0001F910F910895EF92FF920F931F93CF9358
:1013E000DF938C017B01EA010CC0D7016D917D0177
:1013F000D801ED91FC910190F081E02DC801099593
:101400002197209791F7DF91CF911F910F91FF9036
:10141000EF900895DC01ED91FC910280F381E02DC5
:10142000099508950F931F938C01DC01ED91FC91B8
:101430000190F081E02D6DE00995D801ED91FC91CE
:101440000190F081E02DC8016AE009951F910F918C
:1014500008950F931F938C010E940A0AC8010E94ED
:10146000120A1F910F9108952F923F924F925F920F
:101470006F927F928F929F92AF92BF92CF92DF92A4
:10148000EF92FF920F931F93DF93CF93CDB7DEB709
:10149000A0970FB6F894DEBF0FBECDBF1C016A0146
:1014A0007B01411551056105710549F4DC01ED91A0
:1014B000FC910190F081E02D60E3099554C08824EF
:1014C00099245401422E55246624772401E010E02B
:1014D0000C0F1D1F080D191DC701B601A3019201B4
:1014E0000E94B40CF80160830894811C911CA11C1B
:1014F000B11CC701B601A30192010E94B40CC9013D
:10150000DA016C017D01C114D104E104F104F1F6AA
:1015100081E0E82EF12CEC0EFD1EE80CF91C3E01DA
:101520000894611C711CD501C4010197A109B1097E
:101530006C01C818D90814C0F601EE0DFF1D6081BA
:101540006A3010F4605D01C0695CD101ED91FC91DD
:101550000190F081E02DC10109950894E108F1089E
:101560006E147F0449F7A0960FB6F894DEBF0FBE45
:10157000CDBFCF91DF911F910F91FF90EF90DF9042
:10158000CF90BF90AF909F908F907F906F905F9023
:101590004F903F902F9008952AE00E94340A0895BA
:1015A000EF92FF920F931F93CF93DF93EC017A0199
:1015B0008B0177FF0FC0E881F9810190F081E02D68
:1015C0006DE2099510950095F094E094E11CF11CF2
:1015D000011D111DCE01B801A7012AE00E94340AA5
:1015E000DF91CF911F910F91FF90EF900895AB0184
:1015F000662757FD6095762F0E94D00A08951F92A6
:101600000F920FB60F9211242F933F934F935F9336
:101610006F937F938F939F93AF93BF93EF93FF93BA
:101620004091C600E091D003F091D103CF01019623
:1016300060E870E00E94A10C9C018091D20390911F
:10164000D3032817390739F0E05BFC4F4083309310
:10165000D1032093D003FF91EF91BF91AF919F9160
:101660008F917F916F915F914F913F912F910F904B
:101670000FBE0F901F9018955F926F927F928F927E
:101680009F92AF92BF92CF92DF92EF92FF920F9311
:101690001F93CF93DF93EC013A014B01413482E475
:1016A00058078FE0680780E078070CF07FC060E89B
:1016B00074E88EE190E0A40193010E94D60C2150C1
:1016C000304040405040CA01B90122E030E040E0E3
:1016D00050E00E94D60C59016A01A601950120959F
:1016E00030954095509594E0220F331F441F551FAD
:1016F0009A95D1F760E074E284EF90E00E94D60CF6
:10170000CA01B9012FEF30E040E050E00E94820CA6
:10171000A40193010E94D60CC90181509F4F181655
:1017200019061CF4522E5A9403C055245394521A8D
:1017300060E079E08DE390E0A40193010E94D60C73
:101740002150304040405040CA01B90122E030E011
:1017500040E050E00E94D60C209530954095509581
:1017600083E0220F331F441F551F8A95D1F760E095
:1017700074E284EF90E00E94D60CCA01B9012FEF09
:1017800030E040E050E00E94820CA40193010E94EE
:10179000D60CC90181509F4F181619061CF4822FD0
:1017A000815002C081E0821B851500F5E885F9852E
:1017B00081E090E00A8802C0880F991F0A94E2F73E
:1017C000808360E079E08DE390E0A40193010E94C2
:1017D000D60C2150304040405040CA01B90122E0AF
:1017E00030E040E050E00E94D60C04C0E885F98566
:1017F00010829501EC81FD813083EE81FF81208391
:10180000EA85FB85208141E050E0CA010E8402C0D8
:10181000880F991F0A94E2F7282B2083EA85FB851D
:101820002081CA010F8402C0880F991F0A94E2F731
:10183000282B2083EA85FB858081088802C0440F1D
:10184000551F0A94E2F7842B8083DF91CF911F917B
:101850000F91FF90EF90DF90CF90BF90AF909F904F
:101860008F907F906F905F900895FC01A085B18567
:1018700021898C9190E0022E02C0959587950A945B
:10188000E2F780FFF6CF0484F585E02D60830895AC
:101890008FE193E09093D5038093D40380E593E0A8
:1018A0009093D7038093D60385EC90E09093D9036F
:1018B0008093D80384EC90E09093DB038093DA0369
:1018C00080EC90E09093DD038093DC0381EC90E06A
:1018D0009093DF038093DE0386EC90E09093E10326
:1018E0008093E00384E08093E20383E08093E3034A
:1018F00087E08093E40385E08093E50381E08093B3
:10190000E6030895629FD001739FF001829FE00D6E
:10191000F11D649FE00DF11D929FF00D839FF00D6E
:10192000749FF00D659FF00D9927729FB00DE11D1A
:10193000F91F639FB00DE11DF91FBD01CF011124F7
:10194000089597FB092E07260AD077FD04D049D0C9
:1019500006D000201AF4709561957F4F0895F6F730
:10196000909581959F4F0895A1E21A2EAA1BBB1B4B
:10197000FD010DC0AA1FBB1FEE1FFF1FA217B3075B
:10198000E407F50720F0A21BB30BE40BF50B661F71
:10199000771F881F991F1A9469F760957095809535
:1019A00090959B01AC01BD01CF01089597FB092ED5
:1019B00005260ED057FD04D0D7DF0AD0001C38F41E
:1019C00050954095309521953F4F4F4F5F4F08956B
:1019D000F6F790958095709561957F4F8F4F9F4F4B
:1019E0000895AA1BBB1B51E107C0AA1FBB1FA61766
:1019F000B70710F0A61BB70B881F991F5A95A9F7B8
:101A000080959095BC01CD010895EE0FFF1F0590C4
:101A1000F491E02D09942F923F924F925F926F9232
:101A20007F928F929F92AF92BF92CF92DF92EF926E
:101A3000FF920F931F93CF93DF93CDB7DEB7CA1BEF
:101A4000DB0B0FB6F894DEBF0FBECDBF09942A881A
:101A5000398848885F846E847D848C849B84AA84C2
:101A6000B984C884DF80EE80FD800C811B81AA814F
:101A7000B981CE0FD11D0FB6F894DEBF0FBECDBF1A
:081A8000ED010895F894FFCF79
:101A8800436F6C6F726F20646920706F72706F7231
:101A980061210000436F6C6F726F206469206D6173
:101AA80072726F6E65206F6C6976612100436F6C8E
:101AB8006F726F206469206172616E63696F6E6511
:101AC8002100436F6C6F726F20646920666F676CCA
:101AD800696120646920746527287465616C29210F
:101AE80000436F6C6F726F20646920677269676961
:101AF8006F2100436F6C6F726F20646920636961A6
:101B08006E6F2100436F6C6F726F206469206D6186
:101B180067656E74612100436F6C6F726F20646932
:101B2800206769616C6C6F2100436F6C6F726F2066
:101B3800646920626C752100436F6C6F726F20645A
:101B4800692076657264652100436F6C6F726F203F
:101B5800646920726F73736F21005370656E676FCD
:101B68002074757474692069206C6564202D3E208A
:101B78006E65726F00416363656E646F207475747F
:101B880074692069206C6564202D3E206269616E4D
:101B9800636F210054656D706F3A200020426F74A6
:101BA800746F6E653A200020537461746F3A200098
:101BB800256900426F74746F6E65207072656D756B
:101BC800746F207069752720646920006D73004464
:101BD800697374616E7A612072696C65766174618B
:101BE8003A20005061737361746F20696C207465CA
:101BF8006D706F206D617373696D6F2E2E2E20735B
:101C080070656E676F20747574746F004527207354
:101C18007461746F207072656D75746F20696C20C3
:101C2800626F74746F72652E2E2E207370656E67E6
:101C38006F20747574746F0045736567756F2069DC
:101C48006C2072657365742064656C20636F6E74B4
:101C580061746F72652E2E2E206956616C31273A99
:101C6800200020416C207365636F6E646F3A20001A
:101C7800257500206956616C323A20004E756F76E2
:101C88006F2076616C6F7265206469206C756D6970
:101C98006E6F73697461273A2000010000000035F7
:061CA8000CD309EB09005A
:00000001FF
