:100000000C9462000C948A000C948A000C948A0070
:100010000C948A000C948A000C948A000C948A0038
:100020000C948A000C948A000C948A000C948A0028
:100030000C948A000C948A000C948A000C948A0018
:100040000C94FC030C948A000C94B9060C948A005E
:100050000C948A000C948A000C948A000C948A00F8
:100060000C948A000C948A000000000024002700F1
:100070002A0000000000250028002B0000000000DE
:1000800023002600290004040404040404040202DA
:100090000202020203030303030301020408102007
:1000A0004080010204081020010204081020000012
:1000B0000007000201000003040600000000000029
:1000C0000000020811241FBECFEFD8E0DEBFCDBF75
:1000D00011E0A0E0B1E0EEE8F1E102C005900D9280
:1000E000A83FB107D9F712E0A8EFB1E001C01D9217
:1000F000A93BB107E1F710E0C4ECD0E004C02297BF
:10010000FE010E94C108C23CD107C9F70E947E03CC
:100110000C94C5080C94000086E060E070E00E943A
:10012000A30385E060E070E00E94A30383E06FEF2B
:1001300070E00E94A303089586E060E070E00E94F2
:10014000A30385E06FEF70E00E94A30383E060E00B
:1001500070E00E94A303089586E06FEF70E00E94B4
:10016000A30385E060E070E00E94A30383E060E009
:1001700070E00E94A303089586E060E070E00E94B2
:10018000A30385E060E070E00E94A30383E060E0E9
:1001900070E00E94A303089586E06FEF70E00E9474
:1001A000A30385E06FEF70E00E94A30383E06FEF8D
:1001B00070E00E94A303089580E00E94850390935D
:1001C000F9018093F8010E94440428EE33E040E0F6
:1001D00050E00E946E082093090230930A02409377
:1001E0000B0250930C028CE00E9423059093FF01B8
:1001F0008093FE0186EA92E060E071E00E94A9052A
:100200004091090250910A0260910B0270910C0218
:1002100086EA92E00E946B0686EA92E068E071E06E
:100220000E94A9056091FE017091FF0186EA92E0AB
:100230000E94A1062091FE013091FF01213031057D
:1002400041F58091000290910102892B11F5809176
:10025000020290910302281B390B30930302209372
:1002600002020E94440460930D0270930E02809378
:100270000F02909310026EE170E080E090E00E9427
:1002800052048091020290910302019711F40E949E
:100290008C0086EA92E063E171E00E94A90560911A
:1002A00002027091030286EA92E00E94A906809100
:1002B000FE019091FF01019709F0CDC080910002ED
:1002C00090910102019709F0C6C0809102029091BD
:1002D0000302019709F0BFC00E94440420910D025F
:1002E00030910E0240910F0250911002621B730B6D
:1002F000840B950B61547F4180409040E0F086EA8A
:1003000092E06CE171E00E94A90586EA92E060E467
:100310007FE10E94A10686EA92E065E371E00E9417
:10032000C8050E94CC0080E090E001C001968832B0
:100330009105E4F38CC00E94440420910D02309199
:100340000E0240910F0250911002621B730B840B3E
:10035000950B6157774180409040E0F086EA92E04B
:100360006CE171E00E94A90586EA92E060E777E11E
:100370000E94A10686EA92E065E371E00E94C8054A
:100380000E94BC0080E090E001C001968832910597
:10039000E4F35DC00E94440420910D0230910E02EE
:1003A00040910F0250911002621B730B840B950B4E
:1003B000615A7F4080409040E0F086EA92E06CE134
:1003C00071E00E94A90586EA92E060EA7FE00E945F
:1003D000A10686EA92E065E371E00E94C8050E94EA
:1003E000AC0080E090E001C0019688329105E4F312
:1003F0002EC00E94440420910D0230910E024091C3
:100400000F0250911002621B730B840B950B615D00
:10041000774080409040F8F086EA92E06CE171E02D
:100420000E94A90586EA92E060ED77E00E94A106AD
:1004300086EA92E065E371E00E94C8050E949C0094
:1004400080E090E001C0019688329105E4F390933A
:100450000502809304028091FE019091FF01909328
:100460000102809300028091020290910302892B85
:1004700009F09DC00E94BC0085E00E948503909316
:10048000070280930602893C910508F490C00E94FF
:1004900044046093110270931202809313029093AC
:1004A000140281E0809308028091F8019091F90193
:1004B000863491057CF08091FA019091FB0186349D
:1004C000910544F08091FC019091FD0186349105E5
:1004D0000CF06DC080E090E001C001968A3091057B
:1004E000E4F38091110290911202837090709093C6
:1004F0000502809304028130910579F082309105E4
:100500001CF4892B39F011C08230910549F0039712
:1005100061F409C00E948C0008C00E949C0005C0C4
:100520000E94AC0002C00E94CC000E9444042091B2
:100530001102309112024091130250911402621B79
:10054000730B840B950B68547E4E8040904040F0B6
:100550001092080286EA92E068E371E00E94C80502
:100560008CE00E942305019741F41092080286EA6C
:1005700092E061E671E00E94C8058091080288233C
:1005800059F480E090E001C001968A309105E4F3CF
:10059000909305028093040264E670E080E090E0AE
:1005A0000E94520480910802882309F0BECF8091F6
:1005B000090290910A02A0910B02B0910C022091C5
:1005C0001502309116024091170250911802821BB9
:1005D000930BA40BB50B0797A105B10508F46EC0EA
:1005E00086EA92E06DE871E00E94A9056091FA0147
:1005F0007091FB0186EA92E00E94A10686EA92E0F1
:1006000067EB71E00E94A905409115025091160216
:10061000609117027091180286EA92E00E946B06C0
:1006200086EA92E065EC71E00E94A9056091FC0108
:100630007091FD0186EA92E00E94A90686EA92E0A6
:100640006EEC71E00E94A9056091F8017091F901CA
:1006500086EA92E00E94A10686EA92E067EB71E0EA
:100660000E94A9054091090250910A0260910B0273
:1006700070910C0286EA92E00E946F068091090256
:1006800090910A02A0910B02B0910C028093150286
:1006900090931602A0931702B09318028091FA016A
:1006A0009091FB019093FD018093FC018091F801F2
:1006B0009091F9019093FB018093FA016CE271E053
:1006C00080E090E00E945204089586EA92E040E8BB
:1006D00055E260E070E00E94F60683E061E00E946F
:1006E000B60485E061E00E94B60486E061E00E9405
:1006F000B60483E061E00E94B60408950E947C0481
:100700000E9465030E94DC00FDCF8F709091EC0188
:100710009295990F990F907C982B90937C008091E3
:100720007A00806480937A0080917A0086FDFCCF05
:100730002091780040917900942F80E030E0282BC0
:10074000392BC90108951F93CF93DF93182FEB0125
:1007500061E00E94B604E12FF0E0E255FF4F849182
:10076000833051F480918000806880938000D09322
:100770008900C09388003CC0843051F4809180008F
:10078000806280938000D0938B00C0938A0030C039
:10079000813039F4209729F184B5806884BDC7BDC4
:1007A00027C0823039F42097E1F084B5806284BD9F
:1007B000C8BD1EC0863041F48091B000806880932F
:1007C000B000C093B30014C0873041F48091B000F2
:1007D00080628093B000C093B4000AC0C038D105D5
:1007E0001CF4812F60E002C0812F61E00E94D604DA
:1007F000DF91CF911F9108951F920F920FB60F9224
:1008000011242F933F938F939F93AF93BF93809126
:100810001D0290911E02A0911F02B0912002309102
:1008200021020196A11DB11D232F2D5F2D3720F030
:100830002D570196A11DB11D2093210280931D0209
:1008400090931E02A0931F02B09320028091190280
:1008500090911A02A0911B02B0911C020196A11D59
:10086000B11D8093190290931A02A0931B02B093BA
:100870001C02BF91AF919F918F913F912F910F904B
:100880000FBE0F901F9018958FB7F89420911D02FE
:1008900030911E0240911F02509120028FBFB9017A
:1008A000CA010895EF92FF920F931F937B018C0171
:1008B0008FB7F89440911D0250911E0260911F0263
:1008C000709120028FBF2FB7F89480911D029091F4
:1008D0001E02A0911F02B09120022FBF841B950B16
:1008E000A60BB70BE816F9060A071B0760F71F915E
:1008F0000F91FF90EF900895789484B5826084BD45
:1009000084B5816084BD85B5826085BD85B5816013
:1009100085BDEEE6F0E0808181608083E1E8F0E073
:10092000808182608083808181608083E0E8F0E064
:10093000808181608083E1EBF0E08081846080834E
:10094000E0EBF0E0808181608083EAE7F0E0808185
:1009500084608083808182608083808181608083E5
:100960008081806880831092C1000895282F30E034
:10097000C90186569F4FFC0194912A573F4FF901B8
:100980008491882391F0E82FF0E0EE0FFF1FE859E3
:10099000FF4FA591B491662329F48C9190958923FA
:1009A0008C9308958C91892B8C930895482F50E057
:1009B000CA0182559F4FFC012491CA0186569F4F60
:1009C000FC0194914A575F4FFA0134913323D1F1DE
:1009D000222331F1233021F4809180008F7705C0EC
:1009E000243031F4809180008F7D8093800018C086
:1009F000213019F484B58F7704C0223021F484B5F6
:100A00008F7D84BD0DC0263021F48091B0008F779A
:100A100005C0273029F48091B0008F7D8093B0000D
:100A2000E32FF0E0EE0FFF1FEE58FF4FA591B491BA
:100A3000662329F48C91909589238C9308958C9149
:100A4000892B8C930895682F70E0CB0182559F4FBE
:100A5000FC012491CB0186569F4FFC0144916A57BB
:100A60007F4FFB019491992319F420E030E038C0C6
:100A7000222331F1233021F4809180008F7705C04B
:100A8000243031F4809180008F7D8093800018C0E5
:100A9000213019F484B58F7704C0223021F484B555
:100AA0008F7D84BD0DC0263021F48091B0008F77FA
:100AB00005C0273029F48091B0008F7D8093B0006D
:100AC000892F90E0880F991F84589F4FFC01A591B2
:100AD000B4918C9120E030E0842311F021E030E0EB
:100AE000C90108950F931F93CF93DF938C01EB01FE
:100AF00009C02196D801ED91FC910190F081E02D83
:100B0000C801099568816623A1F7DF91CF911F91F4
:100B10000F910895EF92FF920F931F93CF93DF935E
:100B20008C017B01EA010CC0D7016D917D01D801D8
:100B3000ED91FC910190F081E02DC801099521977C
:100B4000209791F7DF91CF911F910F91FF90EF9038
:100B50000895DC01ED91FC910280F381E02D09956F
:100B600008950F931F938C01DC01ED91FC9101908E
:100B7000F081E02D6DE00995D801ED91FC91019097
:100B8000F081E02DC8016AE009951F910F91089549
:100B90000F931F938C010E94A905C8010E94B10503
:100BA0001F910F9108952F923F924F925F926F92F3
:100BB0007F928F929F92AF92BF92CF92DF92EF92ED
:100BC000FF920F931F93DF93CF93CDB7DEB7A0971C
:100BD0000FB6F894DEBF0FBECDBF1C016A017B01CA
:100BE000411551056105710549F4DC01ED91FC9158
:100BF0000190F081E02D60E3099554C08824992488
:100C00005401422E55246624772401E010E00C0F95
:100C10001D1F080D191DC701B601A30192010E94F5
:100C20006E08F80160830894811C911CA11CB11C02
:100C3000C701B601A30192010E946E08C901DA0141
:100C40006C017D01C114D104E104F104F1F681E0ED
:100C5000E82EF12CEC0EFD1EE80CF91C3E01089468
:100C6000611C711CD501C4010197A109B1096C0176
:100C7000C818D90814C0F601EE0DFF1D60816A3056
:100C800010F4605D01C0695CD101ED91FC910190AF
:100C9000F081E02DC10109950894E108F1086E1476
:100CA0007F0449F7A0960FB6F894DEBF0FBECDBF04
:100CB000CF91DF911F910F91FF90EF90DF90CF9038
:100CC000BF90AF909F908F907F906F905F904F906C
:100CD0003F902F9008952AE00E94D30508950F9326
:100CE0001F938C010E946B06C8010E94B1051F91E1
:100CF0000F910895EF92FF920F931F93CF93DF937D
:100D0000EC017A018B0177FF0FC0E881F981019036
:100D1000F081E02D6DE2099510950095F094E09436
:100D2000E11CF11C011D111DCE01B801A7012AE033
:100D30000E94D305DF91CF911F910F91FF90EF900B
:100D40000895AB01662757FD6095762F0E947A06BD
:100D500008950F931F938C01AB01662757FD609593
:100D6000762F0E947A06C8010E94B1051F910F914B
:100D700008951F920F920FB60F9211242F933F9355
:100D80004F935F936F937F938F939F93AF93BF9393
:100D9000EF93FF934091C600E091A202F091A3026D
:100DA000CF01019660E870E00E945B089C01809191
:100DB000A4029091A5022817390739F0EE5DFD4F86
:100DC00040833093A3022093A202FF91EF91BF9141
:100DD000AF919F918F917F916F915F914F913F91D3
:100DE0002F910F900FBE0F901F9018955F926F92EA
:100DF0007F928F929F92AF92BF92CF92DF92EF92AB
:100E0000FF920F931F93CF93DF93EC013A014B01B5
:100E1000413482E458078FE0680780E078070CF0DF
:100E20007FC060E874E88EE190E0A40193010E9425
:100E300090082150304040405040CA01B90122E0A2
:100E400030E040E050E00E94900859016A01A6019C
:100E50009501209530954095509594E0220F331FD1
:100E6000441F551F9A95D1F760E074E284EF90E03B
:100E70000E949008CA01B9012FEF30E040E050E035
:100E80000E943C08A40193010E949008C90181506E
:100E90009F4F181619061CF4522E5A9403C055245D
:100EA0005394521A60E079E08DE390E0A40193013D
:100EB0000E9490082150304040405040CA01B90182
:100EC00022E030E040E050E00E949008209530950C
:100ED0004095509583E0220F331F441F551F8A957C
:100EE000D1F760E074E284EF90E00E949008CA01BC
:100EF000B9012FEF30E040E050E00E943C08A4012F
:100F000093010E949008C90181509F4F181619063D
:100F10001CF4822F815002C081E0821B851500F5F0
:100F2000E885F98581E090E00A8802C0880F991F62
:100F30000A94E2F7808360E079E08DE390E0A40119
:100F400093010E9490082150304040405040CA0117
:100F5000B90122E030E040E050E00E94900804C077
:100F6000E885F98510829501EC81FD813083EE8161
:100F7000FF812083EA85FB85208141E050E0CA01A2
:100F80000E8402C0880F991F0A94E2F7282B208351
:100F9000EA85FB852081CA010F8402C0880F991F52
:100FA0000A94E2F7282B2083EA85FB858081088854
:100FB00002C0440F551F0A94E2F7842B8083DF910F
:100FC000CF911F910F91FF90EF90DF90CF90BF9046
:100FD000AF909F908F907F906F905F900895FC01ED
:100FE000A085B18521898C9190E0022E02C0959553
:100FF00087950A94E2F780FFF6CF0484F585E02D0B
:101000006083089581EF91E09093A7028093A602F8
:1010100082E292E09093A9028093A80285EC90E08E
:101020009093AB028093AA0284EC90E09093AD027F
:101030008093AC0280EC90E09093AF028093AE027C
:1010400081EC90E09093B1028093B00286EC90E046
:101050009093B3028093B20284E08093B40283E061
:101060008093B50287E08093B60285E08093B70253
:1010700081E08093B8020895629FD001739FF001D0
:10108000829FE00DF11D649FE00DF11D929FF00D18
:10109000839FF00D749FF00D659FF00D9927729F4F
:1010A000B00DE11DF91F639FB00DE11DF91FBD01DA
:1010B000CF011124089597FB092E07260AD077FD4A
:1010C00004D049D006D000201AF4709561957F4F66
:1010D0000895F6F7909581959F4F0895A1E21A2EF5
:1010E000AA1BBB1BFD010DC0AA1FBB1FEE1FFF1FCC
:1010F000A217B307E407F50720F0A21BB30BE40B1C
:10110000F50B661F771F881F991F1A9469F7609562
:101110007095809590959B01AC01BD01CF0108951C
:1011200097FB092E05260ED057FD04D0D7DF0AD035
:10113000001C38F450954095309521953F4F4F4F06
:101140005F4F0895F6F790958095709561957F4F64
:101150008F4F9F4F0895AA1BBB1B51E107C0AA1FC9
:10116000BB1FA617B70710F0A61BB70B881F991F48
:101170005A95A9F780959095BC01CD010895EE0F81
:0E118000FF1F0590F491E02D0994F894FFCF25
:10118E0054656D706F3A200020426F74746F6E65F7
:10119E003A200020537461746F3A2000426F7474C9
:1011AE006F6E65207072656D75746F20706975272E
:1011BE0020646920006D73005061737361746F2039
:1011CE00696C2074656D706F206D617373696D6FDE
:1011DE002E2E2E207370656E676F20747574746F6B
:1011EE0000452720737461746F207072656D75747D
:1011FE006F20696C20626F74746F72652E2E2E20B4
:10120E007370656E676F20747574746F00457365C7
:10121E0067756F20696C2072657365742064656CE8
:10122E0020636F6E7461746F72652E2E2E20695658
:10123E00616C31273A200020416C207365636F6E1C
:10124E00646F3A2000206956616C323A20004E7568
:10125E006F766F2076616C6F7265206469206C7595
:10126E006D696E6F73697461273A2000010000008A
:08127E0000EF0772058A05006C
:00000001FF
