:100000000C9462000C948A000C948A000C948A0070
:100010000C948A000C948A000C948A000C948A0038
:100020000C948A000C948A000C948A000C948A0028
:100030000C948A000C948A000C948A000C948A0018
:100040000C94F6050C948A000C94CD070C948A004D
:100050000C948A000C948A000C948A000C948A00F8
:100060000C948A000C948A000000000024002700F1
:100070002A0000000000250028002B0000000000DE
:1000800023002600290004040404040404040202DA
:100090000202020203030303030301020408102007
:1000A0004080010204081020010204081020000012
:1000B0000007000201000003040600000000000029
:1000C0000000160911241FBECFEFD8E0DEBFCDBF60
:1000D00011E0A0E0B1E0E4E2F4E102C005900D928D
:1000E000A438B107D9F712E0A4E8B1E001C01D922D
:1000F000AC33B107E1F710E0C4ECD0E004C02297C4
:10010000FE010E94D509C23CD107C9F70E947805BB
:100110000C94100A0C940000AEE0B0E0E2E9F0E0CC
:100120000C94E7090D891E8986E08C831A83098364
:100130008FEF9FE79E838D839E01275E3F4FCE0109
:1001400001966F89788DA9010E94B0002F813885B2
:10015000020F131FF80110822E96E4E00C94030A9C
:10016000ABE0B0E0E6EBF0E00C94D9093C012B01E8
:100170005A01FC0117821682838181FD03C06FEF53
:100180007FEFC6C19AE0892E1E010894211C311C04
:10019000F3012381F20123FD859123FF81912F013A
:1001A000882309F4B2C1853239F423FD859123FFF8
:1001B00081912F01853229F490E0B3010E94A302BE
:1001C000E7CF982FFF24EE249924FFE1FF15D0F00C
:1001D0009B3269F09C3228F4903259F0933291F4BA
:1001E0000EC09D3249F0903369F441E024C052E0E2
:1001F000F52A84E0F82A28C098E0F92A25C0E0E131
:10020000FE2A22C0F7FC29C0892F80538A3070F45F
:10021000F6FE05C0989C902C1124980E15C0E89C01
:10022000E02C1124E80EF0E2FF2A0EC09E3229F4E1
:10023000F6FC6BC140E4F42A07C09C3619F450E880
:10024000F52A02C0983649F4F20123FD959123FF67
:1002500091912F01992309F0B8CF892F85548330CC
:1002600018F08052833038F444E050E0A40EB51EFC
:100270005FE359830FC0933631F0933779F09335AC
:1002800009F056C020C0F5018081898342E050E02A
:10029000A40EB51E610101E010E012C0F501C0809E
:1002A000D180F6FC03C06FEF7FEF02C0692D70E0D4
:1002B00042E050E0A40EB51EC6010E9498028C01D7
:1002C0005FE7F52214C0F501C080D180F6FC03C0C1
:1002D0006FEF7FEF02C0692D70E042E050E0A40EA6
:1002E000B51EC6010E948D028C0150E8F52AF3FE6E
:1002F00007C01AC080E290E0B3010E94A302EA9412
:100300008E2D90E008171907A8F30EC0F601F7FC30
:100310008591F7FE81916F0190E0B3010E94A302E5
:10032000E110EA94015010400115110579F7EAC077
:10033000943611F0993669F5F7FE08C0F501208171
:1003400031814281538184E090E00AC0F5018081CF
:1003500091819C01442737FD4095542F82E090E025
:10036000A80EB91E9FE6F92257FF09C05095409587
:10037000309521953F4F4F4F5F4FE0E8FE2ACA016D
:10038000B901A1012AE030E00E94CF02D82ED21894
:1003900040C0953729F41F2D1F7E2AE030E01DC094
:1003A0001F2D197F9F3661F0903720F4983509F0A2
:1003B000ACC00FC0903739F0983709F0A6C004C020
:1003C00028E030E00AC0106114FD146020E130E044
:1003D00004C014FD166020E132E017FF08C0F501EB
:1003E000608171818281938144E050E008C0F50111
:1003F00080819181BC0180E090E042E050E0A40E59
:10040000B51EA1010E94CF02D82ED2188FE7F82E78
:10041000F122F6FE0BC05EEFF522D91438F4F4FE9B
:1004200007C0F2FC05C08FEEF82202C01D2D01C0EE
:10043000192DF4FE0DC0FE01ED0DF11D80818033FC
:1004400019F499EEF92208C01F5FF2FE05C003C03F
:100450008F2D867809F01F5F0F2DF3FC14C0F0FE7E
:100460000FC01E1510F09D2C0BC09D2C9E0C911AD8
:100470001E2D06C080E290E0B3010E94A3021F5F20
:100480001E15C0F304C01E1510F4E11A01C0EE24BD
:1004900004FF0FC080E390E0B3010E94A30202FFBB
:1004A0001DC001FD03C088E790E00EC088E590E024
:1004B0000BC0802F867891F001FF02C08BE201C053
:1004C00080E2F7FC8DE290E0B3010E94A30206C037
:1004D00080E390E0B3010E94A3029A94D914C0F380
:1004E000DA94F101ED0DF11D808190E0B3010E94DD
:1004F000A302DD20A9F706C080E290E0B3010E94CC
:10050000A302EA94EE20C1F743CEF301668177811E
:10051000CB012B96E2E10C94F509FC0105906150AA
:1005200070400110D8F7809590958E0F9F1F089509
:10053000FC016150704001900110D8F780959095B2
:100540008E0F9F1F08950F931F93CF93DF938C01FE
:10055000EB018B8181FF1BC082FF0DC02E813F818B
:100560008C819D812817390764F4E881F981019312
:10057000F983E88306C0E885F985802F0995892BE2
:1005800031F48E819F8101969F838E8302C00FEF8D
:100590001FEFC801DF91CF911F910F910895FA01CC
:1005A000AA27283051F1203181F1E8946F936E7FB2
:1005B0006E5F7F4F8F4F9F4FAF4FB1E03ED0B4E0A3
:1005C0003CD0670F781F891F9A1FA11D680F791FE4
:1005D0008A1F911DA11D6A0F711D811D911DA11DF5
:1005E00020D009F468943F912AE0269F1124301905
:1005F000305D3193DEF6CF010895462F4770405DA0
:100600004193B3E00FD0C9F7F6CF462F4F70405D4E
:100610004A3318F0495D31FD4052419302D0A9F7A9
:10062000EACFB4E0A6959795879577956795BA95A3
:10063000C9F700976105710508959B01AC010A2E69
:1006400006945795479537952795BA95C9F7620F40
:10065000731F841F951FA01D089589E292E040E852
:1006600055E260E070E00E940A0808951F939C0123
:10067000162F89E292E0B9010E94A307113031F4EC
:1006800089E292E060E071E00E94C2071F91089544
:1006900083E060E070E00E949D056AE070E080E029
:1006A00090E00E944C0683E06FEF70E00E949D0591
:1006B0006AE070E080E090E00E944C060895CF92DE
:1006C000DF92EF92FF920F931F93DF93CF93CDB7FB
:1006D000DEB764970FB6F894DEBF0FBECDBF80E0E3
:1006E0000E947F0590938501809384010E943E06BD
:1006F00028EE33E040E050E00E9482092093900110
:100700003093910140939201509393018CE00E94A9
:100710001D0790938B0180938A018DB79EB7089730
:100720000FB6F8949EBF0FBE8DBFEDB7FEB73196E2
:100730008E010F5F1F4FADB7BEB712961C930E937D
:10074000119781E091E09383828380919001909151
:100750009101A0919201B091930184839583A68326
:10076000B7830E948C008DB79EB708960FB6F89499
:100770009EBF0FBE8DBF84E091E060E00E94360313
:10078000C80160E00E9436038CE091E060E00E94C6
:10079000360300D000D000D0EDB7FEB73196ADB72C
:1007A000BEB712961C930E93119787E191E0938345
:1007B000828380918A0190918B01958384830E942A
:1007C0008C008DB79EB706960FB6F8949EBF0FBEED
:1007D0008DBFC80161E00E94360320918A013091EB
:1007E0008B012130310501F580918C0190918D01B3
:1007F000892BD1F480918E0190918F01281B390BA8
:1008000030938F0120938E010E943E0660939401E5
:100810007093950180939601909397016EE170E03B
:1008200080E090E00E944C0680918A0190918B01BB
:10083000019741F580918C0190918D01019711F5FF
:1008400080918E0190918F010197E1F40E943E0604
:10085000209194013091950140919601509197011A
:10086000621B730B840B950B655F71408040904059
:1008700048F000E010E00E9448030F5F1F4F0A306D
:100880001105C9F780918A0190918B0190938D0198
:1008900080938C018091900190919101A09192019F
:1008A000B0919301209198013091990140919A0162
:1008B00050919B01821B930BA40BB50B0797A105CD
:1008C000B10508F400C18AE191E060E00E943603BE
:1008D00000D000D000D0EDB7FEB731968E010F5F8B
:1008E0001F4FADB7BEB712961C930E93119797E1A9
:1008F000E92E91E0F92EF382E282809186019091B7
:100900008701958384830E948C008DB79EB70696DD
:100910000FB6F8949EBF0FBE8DBFC80160E00E9465
:10092000360384E491E060E00E943603ADB7BEB7C1
:1009300018970FB6F894BEBF0FBEADBFEDB7FEB7A8
:10094000319612961C930E93119781E0C82E81E088
:10095000D82ED382C2828091980190919901A09162
:100960009A01B0919B0184839583A683B7830E94EB
:100970008C008DB79EB708960FB6F8949EBF0FBE39
:100980008DBFC80160E00E94360382E591E060E01F
:100990000E94360300D000D000D0EDB7FEB73196EC
:1009A000ADB7BEB712961C930E931197F382E282F5
:1009B0008091880190918901958384830E948C00A5
:1009C0008DB79EB706960FB6F8949EBF0FBE8DBF2B
:1009D000C80161E00E9436038BE591E060E00E946F
:1009E000360300D000D000D0EDB7FEB73196ADB7DA
:1009F000BEB712961C930E931197F382E2828091F8
:100A0000840190918501958384830E948C008DB729
:100A10009EB706960FB6F8949EBF0FBE8DBFC80155
:100A200060E00E94360384E491E060E00E943603B7
:100A3000ADB7BEB718970FB6F894BEBF0FBEADBF27
:100A4000EDB7FEB7319612961C930E931197D38291
:100A5000C2828091900190919101A0919201B091F8
:100A6000930184839583A683B7830E948C008DB7FE
:100A70009EB708960FB6F8949EBF0FBE8DBFC801F3
:100A800061E00E9436038091900190919101A091C4
:100A90009201B09193018093980190939901A09352
:100AA0009A01B0939B018091860190918701909368
:100AB00089018093880180918401909185019093B0
:100AC00087018093860168EC70E080E090E00E94EE
:100AD0004C0664960FB6F894DEBF0FBECDBFCF9123
:100AE000DF911F910F91FF90EF90DF90CF900895CD
:100AF0000E9476060E942D030E945F03FDCF8F7037
:100B0000909179019295990F990F907C982B9093E1
:100B10007C0080917A00806480937A0080917A00D2
:100B200086FDFCCF2091780040917900942F80E0E1
:100B300030E0282B392BC90108951F93CF93DF9301
:100B4000182FEB0161E00E94B006E12FF0E0E255C2
:100B5000FF4F8491833051F48091800080688093AE
:100B60008000D0938900C09388003CC0843051F449
:100B700080918000806280938000D0938B00C0932E
:100B80008A0030C0813039F4209729F184B580681B
:100B900084BDC7BD27C0823039F42097E1F084B509
:100BA000806284BDC8BD1EC0863041F48091B00013
:100BB00080688093B000C093B30014C0873041F4C4
:100BC0008091B00080628093B000C093B4000AC0EE
:100BD000C038D1051CF4812F60E002C0812F61E094
:100BE0000E94D006DF91CF911F9108951F920F921E
:100BF0000FB60F9211242F933F938F939F93AF9330
:100C0000BF938091A0019091A101A091A201B09108
:100C1000A3013091A4010196A11DB11D232F2D5FC9
:100C20002D3720F02D570196A11DB11D2093A40151
:100C30008093A0019093A101A093A201B093A3017E
:100C400080919C0190919D01A0919E01B0919F0186
:100C50000196A11DB11D80939C0190939D01A093CD
:100C60009E01B0939F01BF91AF919F918F913F9152
:100C70002F910F900FBE0F901F9018958FB7F8947B
:100C80002091A0013091A1014091A2015091A301B6
:100C90008FBFB901CA010895EF92FF920F931F937E
:100CA0007B018C018FB7F8944091A0015091A10174
:100CB0006091A2017091A3018FBF2FB7F89480912A
:100CC000A0019091A101A091A201B091A3012FBF19
:100CD000841B950BA60BB70BE816F9060A071B0732
:100CE00060F71F910F91FF90EF900895789484B56D
:100CF000826084BD84B5816084BD85B5826085BD18
:100D000085B5816085BDEEE6F0E0808181608083FD
:100D1000E1E8F0E08081826080838081816080836F
:100D2000E0E8F0E0808181608083E1EBF0E08081A9
:100D300084608083E0EBF0E0808181608083EAE77B
:100D4000F0E0808184608083808182608083808104
:100D5000816080838081806880831092C1000895C3
:100D6000282F30E0C90186569F4FFC0194912A57E5
:100D70003F4FF9018491882391F0E82FF0E0EE0FC6
:100D8000FF1FE859FF4FA591B491662329F48C9178
:100D9000909589238C9308958C91892B8C93089539
:100DA000482F50E0CA0182559F4FFC012491CA018F
:100DB00086569F4FFC0194914A575F4FFA01349138
:100DC0003323D1F1222331F1233021F480918000AB
:100DD0008F7705C0243031F4809180008F7D80931F
:100DE000800018C0213019F484B58F7704C02230F8
:100DF00021F484B58F7D84BD0DC0263021F480910F
:100E0000B0008F7705C0273029F48091B0008F7D26
:100E10008093B000E32FF0E0EE0FFF1FEE58FF4F7E
:100E2000A591B491662329F48C91909589238C9394
:100E300008958C91892B8C930895682F70E0CB01D5
:100E400082559F4FFC012491CB0186569F4FFC0198
:100E500044916A577F4FFB019491992319F420E044
:100E600030E038C0222331F1233021F4809180001A
:100E70008F7705C0243031F4809180008F7D80937E
:100E8000800018C0213019F484B58F7704C0223057
:100E900021F484B58F7D84BD0DC0263021F480916E
:100EA000B0008F7705C0273029F48091B0008F7D86
:100EB0008093B000892F90E0880F991F84589F4F2E
:100EC000FC01A591B4918C9120E030E0842311F0D5
:100ED00021E030E0C90108950F931F93CF93DF9372
:100EE0008C01EB0109C02196D801ED91FC91019094
:100EF000F081E02DC801099568816623A1F7DF9193
:100F0000CF911F910F910895EF92FF920F931F932E
:100F1000CF93DF938C017B01EA010CC0D7016D9167
:100F20007D01D801ED91FC910190F081E02DC80187
:100F300009952197209791F7DF91CF911F910F91FC
:100F4000FF90EF900895DC01ED91FC910280F38118
:100F5000E02D099508950F931F938C01DC01ED910D
:100F6000FC910190F081E02D6DE00995D801ED91A3
:100F7000FC910190F081E02DC8016AE009951F9174
:100F80000F9108950F931F938C010E94A307C8012E
:100F90000E94AB071F910F9108951F920F920FB6F9
:100FA0000F9211242F933F934F935F936F937F93EF
:100FB0008F939F93AF93BF93EF93FF934091C6009E
:100FC000E0912502F0912602CF01019660E870E0E1
:100FD0000E946F099C018091270290912802281796
:100FE000390739F0EB55FE4F4083309326022093AA
:100FF0002502FF91EF91BF91AF919F918F917F91CA
:101000006F915F914F913F912F910F900FBE0F9075
:101010001F9018955F926F927F928F929F92AF92DE
:10102000BF92CF92DF92EF92FF920F931F93CF93D5
:10103000DF93EC013A014B01413482E458078FE021
:10104000680780E078070CF07FC060E874E88EE104
:1010500090E0A40193010E94A40921503040404037
:101060005040CA01B90122E030E040E050E00E9467
:10107000A40959016A01A601950120953095409572
:10108000509594E0220F331F441F551F9A95D1F7B6
:1010900060E074E284EF90E00E94A409CA01B90103
:1010A0002FEF30E040E050E00E945009A40193018E
:1010B0000E94A409C90181509F4F181619061CF4FB
:1010C000522E5A9403C055245394521A60E079E08A
:1010D0008DE390E0A40193010E94A40921503040C7
:1010E00040405040CA01B90122E030E040E050E009
:1010F0000E94A409209530954095509583E0220FD9
:10110000331F441F551F8A95D1F760E074E284EFC6
:1011100090E00E94A409CA01B9012FEF30E040E03D
:1011200050E00E945009A40193010E94A409C90142
:1011300081509F4F181619061CF4822F815002C04F
:1011400081E0821B851500F5E885F98581E090E056
:101150000A8802C0880F991F0A94E2F7808360E032
:1011600079E08DE390E0A40193010E94A40921504D
:10117000304040405040CA01B90122E030E040E038
:1011800050E00E94A40904C0E885F9851082950109
:10119000EC81FD813083EE81FF812083EA85FB8530
:1011A000208141E050E0CA010E8402C0880F991FDF
:1011B0000A94E2F7282B2083EA85FB852081CA0167
:1011C0000F8402C0880F991F0A94E2F7282B20830E
:1011D000EA85FB858081088802C0440F551F0A9468
:1011E000E2F7842B8083DF91CF911F910F91FF90C5
:1011F000EF90DF90CF90BF90AF909F908F907F90B7
:101200006F905F900895FC01A085B18521898C9134
:1012100090E0022E02C0959587950A94E2F780FF30
:10122000F6CF0484F585E02D608308958EE791E084
:1012300090932A028093290285EA91E090932C02F0
:1012400080932B0285EC90E090932E0280932D02E8
:1012500084EC90E09093300280932F0280EC90E039
:10126000909332028093310281EC90E090933402AB
:101270008093330286EC90E090933602809335029F
:1012800084E08093370283E08093380287E0809384
:10129000390285E080933A0281E080933B02089511
:1012A000629FD001739FF001829FE00DF11D649F4A
:1012B000E00DF11D929FF00D839FF00D749FF00DD6
:1012C000659FF00D9927729FB00DE11DF91F639F77
:1012D000B00DE11DF91FBD01CF011124089597FB49
:1012E000092E07260AD077FD04D049D006D0002069
:1012F0001AF4709561957F4F0895F6F79095819552
:101300009F4F0895A1E21A2EAA1BBB1BFD010DC021
:10131000AA1FBB1FEE1FFF1FA217B307E407F507A5
:1013200020F0A21BB30BE40BF50B661F771F881F81
:10133000991F1A9469F760957095809590959B0117
:10134000AC01BD01CF01089597FB092E05260ED0F3
:1013500057FD04D0D7DF0AD0001C38F450954095D3
:10136000309521953F4F4F4F5F4F0895F6F7909579
:101370008095709561957F4F8F4F9F4F0895AA1B61
:10138000BB1B51E107C0AA1FBB1FA617B70710F070
:10139000A61BB70B881F991F5A95A9F780959095A2
:1013A000BC01CD010895EE0FFF1F0590F491E02DD3
:1013B00009942F923F924F925F926F927F928F92F9
:1013C0009F92AF92BF92CF92DF92EF92FF920F93D4
:1013D0001F93CF93DF93CDB7DEB7CA1BDB0B0FB6DE
:1013E000F894DEBF0FBECDBF09942A88398848889B
:1013F0005F846E847D848C849B84AA84B984C88431
:10140000DF80EE80FD800C811B81AA81B981CE0F27
:10141000D11D0FB6F894DEBF0FBECDBFED0108950C
:04142000F894FFCF6E
:101424000025750054656D706F3A200020426F747A
:10143400746F6E653A200025690045736567756FA2
:1014440020696C2072657365742064656C20636F19
:101454006E7461746F72652E2E2E206956616C3124
:10146400273A200020416C207365636F6E646F3AE5
:101474002000206956616C323A20004E756F766FF9
:101484002076616C6F7265206469206C756D696E7D
:101494006F73697461273A2000010000000003099A
:0414A4006C07840746
:00000001FF
