:100000000C9462000C948A000C948A000C948A0070
:100010000C948A000C948A000C948A000C948A0038
:100020000C948A000C948A000C948A000C948A0028
:100030000C948A000C948A000C948A000C948A0018
:100040000C94EF050C948A000C94AC080C948A0074
:100050000C948A000C948A000C948A000C948A00F8
:100060000C948A000C948A000000000024002700F1
:100070002A0000000000250028002B0000000000DE
:1000800023002600290004040404040404040202DA
:100090000202020203030303030301020408102007
:1000A0004080010204081020010204081020000012
:1000B0000007000201000003040600000000000029
:1000C0000000F50911241FBECFEFD8E0DEBFCDBF81
:1000D00012E0A0E0B1E0E4E7F5E102C005900D9286
:1000E000A435B107D9F713E0A4E5B2E001C01D9231
:1000F000A531B107E1F710E0C4ECD0E004C02297CD
:10010000FE010E94B40AC23CD107C9F70E947105E2
:100110000C94B80A0C94000086E060E870E00E943D
:10012000960585E060E070E00E94960583E060E857
:1001300070E00E949605089586E060E870E00E94F5
:10014000960585E060E870E00E94960583E060E037
:1001500070E00E949605089586E06FEF70E00E94BF
:10016000960585E06FE770E00E94960583E060E009
:1001700070E00E949605089586E060E070E00E94BD
:10018000960585E060E870E00E94960583E060E8EF
:1001900070E00E949605089586E060E870E00E9495
:1001A000960585E060E870E00E94960583E060E8CF
:1001B00070E00E949605089586E060E070E00E947D
:1001C000960585E06FEF70E00E94960583E06FEF83
:1001D00070E00E949605089586E06FEF70E00E943F
:1001E000960585E060E070E00E94960583E06FEF81
:1001F00070E00E949605089586E06FEF70E00E941F
:10020000960585E06FEF70E00E94960583E060E060
:1002100070E00E949605089586E060E070E00E941C
:10022000960585E060E070E00E94960583E06FEF40
:1002300070E00E949605089586E060E070E00E94FC
:10024000960585E06FEF70E00E94960583E060E020
:1002500070E00E949605089586E06FEF70E00E94BE
:10026000960585E060E070E00E94960583E060E01E
:1002700070E00E949605089586E060E070E00E94BC
:10028000960585E060E070E00E94960583E060E0FE
:1002900070E00E949605089586E06FEF70E00E947E
:1002A000960585E06FEF70E00E94960583E06FEFA2
:1002B00070E00E949605089580E00E947805909372
:1002C0005502809354020E94370628EE33E040E046
:1002D00050E00E94610A20936502309366024093C9
:1002E0006702509368028CE00E94160790935B02AD
:1002F00080935A0282E093E060E071E00E949C07E4
:1003000040916502509166026091670270916802A7
:1003100082E093E00E945E0882E093E068E071E092
:100320000E949C0760915A0270915B0282E093E008
:100330000E94940820915A0230915B0221303105CD
:1003400041F580915C0290915D02892B11F58091BD
:100350005E0290915F02281B390B30935F0220935D
:100360005E020E9437066093690270936A0280936E
:100370006B0290936C026EE170E080E090E00E946E
:10038000450680915E0290915F02019711F40E94F0
:100390004C0182E093E063E171E00E949C07609170
:1003A0005E0270915F0282E093E00E949C0880915F
:1003B0005A0290915B02019709F0C5C180915C02DD
:1003C00090915D02019709F0BEC180915E0290910B
:1003D0005F02019709F0B7C10E94370620916902B8
:1003E00030916A0240916B0250916C02621B730B58
:1003F000840B950B615F754580409040A8F082E0CA
:1004000093E06CE171E00E949C0782E093E060EF72
:1004100075E50E94940882E093E065E371E00E9434
:10042000BB070E948C008FC10E9437062091690291
:1004300030916A0240916B0250916C02621B730B07
:10044000840B950B61527E4480409040A8F082E07E
:1004500093E06CE171E00E949C0782E093E060E22F
:100460007EE40E94940882E093E065E371E00E94DC
:10047000BB070E949C0067C10E9437062091690259
:1004800030916A0240916B0250916C02621B730BB7
:10049000840B950B6155764480409040A8F082E033
:1004A00093E06CE171E00E949C0782E093E060E5DC
:1004B00076E40E94940882E093E065E371E00E9494
:1004C000BB070E94AC003FC10E9437062091690221
:1004D00030916A0240916B0250916C02621B730B67
:1004E000840B950B61587E4380409040A8F082E0D9
:1004F00093E06CE171E00E949C0782E093E060E889
:100500007EE30E94940882E093E065E371E00E943C
:10051000BB070E94BC0017C10E94370620916902E8
:1005200030916A0240916B0250916C02621B730B16
:10053000840B950B615B764380409040A8F082E08D
:1005400093E06CE171E00E949C0782E093E060EB35
:1005500076E30E94940882E093E065E371E00E94F4
:10056000BB070E94CC00EFC00E94370620916902B1
:1005700030916A0240916B0250916C02621B730BC6
:10058000840B950B615E7E4280409040A8F082E033
:1005900093E06CE171E00E949C0782E093E060EEE2
:1005A0007EE20E94940882E093E065E371E00E949D
:1005B000BB070E94DC00C7C00E9437062091690279
:1005C00030916A0240916B0250916C02621B730B76
:1005D000840B950B6151774280409040A8F082E0F7
:1005E00093E06CE171E00E949C0782E093E060E19F
:1005F00077E20E94940882E093E065E371E00E9454
:10060000BB070E94EC009FC00E9437062091690240
:1006100030916A0240916B0250916C02621B730B25
:10062000840B950B61547F4180409040A8F082E09C
:1006300093E06CE171E00E949C0782E093E060E44B
:100640007FE10E94940882E093E065E371E00E94FC
:10065000BB070E94FC0077C00E9437062091690208
:1006600030916A0240916B0250916C02621B730BD5
:10067000840B950B6157774180409040A8F082E051
:1006800093E06CE171E00E949C0782E093E060E7F8
:1006900077E10E94940882E093E065E371E00E94B4
:1006A000BB070E940C014FC00E94370620916902CF
:1006B00030916A0240916B0250916C02621B730B85
:1006C000840B950B615A7F4080409040A8F082E0F7
:1006D00093E06CE171E00E949C0782E093E060EAA5
:1006E0007FE00E94940882E093E065E371E00E945D
:1006F000BB070E941C0127C00E9437062091690297
:1007000030916A0240916B0250916C02621B730B34
:10071000840B950B615D774080409040A0F082E0B3
:1007200093E06CE171E00E949C0782E093E060ED51
:1007300077E00E94940882E093E065E371E00E9414
:10074000BB070E942C0180915A0290915B0290930A
:100750005D0280935C0280915E0290915F02892B22
:1007600009F018C10E943C0185E00E947805909331
:10077000630280936202893C910508F40BC10E94D8
:10078000370660936D0270936E0280936F029093B0
:10079000700281E08093640280915402909155022E
:1007A000863491057CF080915602909157028634F0
:1007B000910544F080915802909159028634910538
:1007C0000CF0E8C080E090E001C001968A3091050D
:1007D000E4F360916D0270916E0280916F029091CE
:1007E00070022CE030E040E050E00E94610A70931B
:1007F0006102609360026530710509F457C066308C
:100800007105ACF462307105E1F1633071053CF4BF
:10081000672B49F16130710509F07AC02BC0633054
:100820007105B1F16430710509F072C038C06830EB
:10083000710509F450C06930710544F466307105E2
:10084000E1F16730710509F063C03EC06A3071059F
:1008500009F44FC06A3071050CF444C06B30710567
:1008600009F056C04DC00E944C0182E093E068E35D
:1008700071E04CC00E942C0182E093E060E471E0E2
:1008800045C00E941C0182E093E067E471E03EC035
:100890000E940C0182E093E06EE471E037C00E9498
:1008A000FC0082E093E063E571E030C00E94EC0060
:1008B00082E093E06BE571E029C00E94DC0082E0F9
:1008C00093E064E671E022C00E94CC0082E093E0F5
:1008D0006BE671E01BC00E94BC0082E093E063E71E
:1008E00071E014C00E94AC0082E093E069E771E01F
:1008F0000DC00E949C0082E093E064E871E006C0B5
:100900000E948C0082E093E06BE871E00E94BB07DC
:100910000E94370620916D0230916E0240916F0265
:1009200050917002621B730B840B950B68547E4EC2
:100930008040904040F01092640282E093E064E9CD
:1009400071E00E94BB078CE00E941607019741F4FA
:100950001092640282E093E06DEB71E00E94BB07AD
:1009600080916402882359F480E090E001C00196F0
:100970008A309105E4F3909361028093600264E60B
:1009800070E080E090E00E94450680916402882338
:1009900009F0BECF8091650290916602A091670236
:1009A000B0916802209171023091720240917302FD
:1009B00050917402821B930BA40BB50B0797A105F2
:1009C000B10508F46EC082E093E069EE71E00E9428
:1009D0009C07609156027091570282E093E00E945A
:1009E000940882E093E063E172E00E949C074091EA
:1009F000710250917202609173027091740282E0F0
:100A000093E00E945E0882E093E061E272E00E945F
:100A10009C07609158027091590282E093E00E9415
:100A20009C0882E093E06AE272E00E949C07609179
:100A300054027091550282E093E00E94940882E093
:100A400093E063E172E00E949C074091650250913F
:100A50006602609167027091680282E093E00E94F2
:100A600062088091650290916602A0916702B09140
:100A700068028093710290937202A0937302B09304
:100A8000740280915602909157029093590280937C
:100A9000580280915402909155029093570280938E
:100AA00056026CE271E080E090E00E9445060895F5
:100AB00082E093E040E855E260E070E00E94E908DF
:100AC00083E061E00E94A90685E061E00E94A9063A
:100AD00086E061E00E94A90683E061E00E94A90629
:100AE00008950E946F060E9458050E945C01FDCF88
:100AF0008F70909148029295990F990F907C982B46
:100B000090937C0080917A00806480937A00809139
:100B10007A0086FDFCCF2091780040917900942FD7
:100B200080E030E0282B392BC90108951F93CF9323
:100B3000DF93182FEB0161E00E94A906E12FF0E09E
:100B4000E255FF4F8491833051F48091800080689A
:100B500080938000D0938900C09388003CC084308B
:100B600051F480918000806280938000D0938B004C
:100B7000C0938A0030C0813039F4209729F184B5C0
:100B8000806884BDC7BD27C0823039F42097E1F06A
:100B900084B5806284BDC8BD1EC0863041F480919A
:100BA000B00080688093B000C093B30014C0873059
:100BB00041F48091B00080628093B000C093B40093
:100BC0000AC0C038D1051CF4812F60E002C0812F1B
:100BD00061E00E94C906DF91CF911F9108951F9295
:100BE0000F920FB60F9211242F933F938F939F93E1
:100BF000AF93BF938091790290917A02A0917B028A
:100C0000B0917C0230917D020196A11DB11D232F70
:100C10002D5F2D3720F02D570196A11DB11D20937A
:100C20007D028093790290937A02A0937B02B09325
:100C30007C028091750290917602A0917702B0912A
:100C400078020196A11DB11D8093750290937602E2
:100C5000A0937702B0937802BF91AF919F918F914B
:100C60003F912F910F900FBE0F901F9018958FB747
:100C7000F8942091790230917A0240917B02509150
:100C80007C028FBFB901CA010895EF92FF920F93C2
:100C90001F937B018C018FB7F8944091790250919A
:100CA0007A0260917B0270917C028FBF2FB7F8941B
:100CB0008091790290917A02A0917B02B0917C029E
:100CC0002FBF841B950BA60BB70BE816F9060A0776
:100CD0001B0760F71F910F91FF90EF900895789494
:100CE00084B5826084BD84B5816084BD85B5826031
:100CF00085BD85B5816085BDEEE6F0E080818160CF
:100D00008083E1E8F0E0808182608083808181607F
:100D10008083E0E8F0E0808181608083E1EBF0E0B7
:100D2000808184608083E0EBF0E08081816080835B
:100D3000EAE7F0E080818460808380818260808344
:100D40008081816080838081806880831092C1006F
:100D50000895282F30E0C90186569F4FFC019491D9
:100D60002A573F4FF9018491882391F0E82FF0E052
:100D7000EE0FFF1FE859FF4FA591B491662329F4A8
:100D80008C91909589238C9308958C91892B8C93C9
:100D90000895482F50E0CA0182559F4FFC012491CD
:100DA000CA0186569F4FFC0194914A575F4FFA0142
:100DB00034913323D1F1222331F1233021F4809176
:100DC00080008F7705C0243031F4809180008F7DC2
:100DD0008093800018C0213019F484B58F7704C047
:100DE000223021F484B58F7D84BD0DC0263021F4DE
:100DF0008091B0008F7705C0273029F48091B00032
:100E00008F7D8093B000E32FF0E0EE0FFF1FEE58D0
:100E1000FF4FA591B491662329F48C919095892375
:100E20008C9308958C91892B8C930895682F70E092
:100E3000CB0182559F4FFC012491CB0186569F4FD9
:100E4000FC0144916A577F4FFB019491992319F457
:100E500020E030E038C0222331F1233021F48091AA
:100E600080008F7705C0243031F4809180008F7D21
:100E70008093800018C0213019F484B58F7704C0A6
:100E8000223021F484B58F7D84BD0DC0263021F43D
:100E90008091B0008F7705C0273029F48091B00091
:100EA0008F7D8093B000892F90E0880F991F845820
:100EB0009F4FFC01A591B4918C9120E030E08423F8
:100EC00011F021E030E0C90108950F931F93CF93F3
:100ED000DF938C01EB0109C02196D801ED91FC91C3
:100EE0000190F081E02DC801099568816623A1F782
:100EF000DF91CF911F910F910895EF92FF920F9381
:100F00001F93CF93DF938C017B01EA010CC0D701C3
:100F10006D917D01D801ED91FC910190F081E02D62
:100F2000C80109952197209791F7DF91CF911F91E3
:100F30000F91FF90EF900895DC01ED91FC910280FC
:100F4000F381E02D099508950F931F938C01DC0127
:100F5000ED91FC910190F081E02D6DE00995D801B3
:100F6000ED91FC910190F081E02DC8016AE00995B6
:100F70001F910F9108950F931F938C010E949C075E
:100F8000C8010E94A4071F910F9108952F923F92CC
:100F90004F925F926F927F928F929F92AF92BF9289
:100FA000CF92DF92EF92FF920F931F93DF93CF9335
:100FB000CDB7DEB7A0970FB6F894DEBF0FBECDBF9A
:100FC0001C016A017B01411551056105710549F458
:100FD000DC01ED91FC910190F081E02D60E3099539
:100FE00054C0882499245401422E55246624772421
:100FF00001E010E00C0F1D1F080D191DC701B601FF
:10100000A30192010E94610AF80160830894811C87
:10101000911CA11CB11CC701B601A30192010E9441
:10102000610AC901DA016C017D01C114D104E10436
:10103000F104F1F681E0E82EF12CEC0EFD1EE80C37
:10104000F91C3E010894611C711CD501C401019773
:10105000A109B1096C01C818D90814C0F601EE0D38
:10106000FF1D60816A3010F4605D01C0695CD101D0
:10107000ED91FC910190F081E02DC101099508945A
:10108000E108F1086E147F0449F7A0960FB6F894B2
:10109000DEBF0FBECDBFCF91DF911F910F91FF90AB
:1010A000EF90DF90CF90BF90AF909F908F907F9008
:1010B0006F905F904F903F902F9008952AE00E948C
:1010C000C60708950F931F938C010E945E08C80104
:1010D0000E94A4071F910F910895EF92FF920F9322
:1010E0001F93CF93DF93EC017A018B0177FF0FC041
:1010F000E881F9810190F081E02D6DE2099510956C
:101100000095F094E094E11CF11C011D111DCE012D
:10111000B801A7012AE00E94C607DF91CF911F9175
:101120000F91FF90EF900895AB01662757FD6095F2
:10113000762F0E946D0808950F931F938C01AB01C9
:10114000662757FD6095762F0E946D08C8010E94A2
:10115000A4071F910F9108951F920F920FB60F923F
:1011600011242F933F934F935F936F937F938F93AC
:101170009F93AF93BF93EF93FF934091C600E0918D
:10118000FE02F091FF02CF01019660E870E00E943C
:101190004E0A9C01809100039091010328173907A2
:1011A00039F0E258FD4F40833093FF022093FE0256
:1011B000FF91EF91BF91AF919F918F917F916F912F
:1011C0005F914F913F912F910F900FBE0F901F9005
:1011D00018955F926F927F928F929F92AF92BF927B
:1011E000CF92DF92EF92FF920F931F93CF93DF93F3
:1011F000EC013A014B01413482E458078FE0680763
:1012000080E078070CF07FC060E874E88EE190E041
:10121000A40193010E94830A215030404040504075
:10122000CA01B90122E030E040E050E00E94830AA8
:1012300059016A01A6019501209530954095509578
:1012400094E0220F331F441F551F9A95D1F760E099
:1012500074E284EF90E00E94830ACA01B9012FEF83
:1012600030E040E050E00E942F0AA40193010E9468
:10127000830AC90181509F4F181619061CF4522E7B
:101280005A9403C055245394521A60E079E08DE3D8
:1012900090E0A40193010E94830A21503040404015
:1012A0005040CA01B90122E030E040E050E00E9425
:1012B000830A209530954095509583E0220F331F87
:1012C000441F551F8A95D1F760E074E284EF90E0E7
:1012D0000E94830ACA01B9012FEF30E040E050E0DC
:1012E0000E942F0AA40193010E94830AC901815020
:1012F0009F4F181619061CF4822F815002C081E0FE
:10130000821B851500F5E885F98581E090E00A8863
:1013100002C0880F991F0A94E2F7808360E079E0A9
:101320008DE390E0A40193010E94830A2150304094
:1013300040405040CA01B90122E030E040E050E0B6
:101340000E94830A04C0E885F98510829501EC812A
:10135000FD813083EE81FF812083EA85FB8520813A
:1013600041E050E0CA010E8402C0880F991F0A9420
:10137000E2F7282B2083EA85FB852081CA010F84B0
:1013800002C0880F991F0A94E2F7282B2083EA8570
:10139000FB858081088802C0440F551F0A94E2F73C
:1013A000842B8083DF91CF911F910F91FF90EF905D
:1013B000DF90CF90BF90AF909F908F907F906F9075
:1013C0005F900895FC01A085B18521898C9190E002
:1013D000022E02C0959587950A94E2F780FFF6CF1A
:1013E0000484F585E02D608308958DE492E0909368
:1013F0000303809302038EE792E0909305038093AA
:10140000040385EC90E0909307038093060384EC3B
:1014100090E0909309038093080380EC90E0909310
:101420000B0380930A0381EC90E090930D0380936B
:101430000C0386EC90E090930F0380930E0384E0FE
:101440008093100383E08093110387E0809312035D
:1014500085E08093130381E0809314030895629FD5
:10146000D001739FF001829FE00DF11D649FE00D9C
:10147000F11D929FF00D839FF00D749FF00D659FFD
:10148000F00D9927729FB00DE11DF91F639FB00DFC
:10149000E11DF91FBD01CF011124089597FB092E0D
:1014A00007260AD077FD04D049D006D000201AF4D0
:1014B000709561957F4F0895F6F7909581959F4FB0
:1014C0000895A1E21A2EAA1BBB1BFD010DC0AA1F85
:1014D000BB1FEE1FFF1FA217B307E407F50720F09D
:1014E000A21BB30BE40BF50B661F771F881F991F18
:1014F0001A9469F760957095809590959B01AC0161
:10150000BD01CF01089597FB092E05260ED057FD8A
:1015100004D0D7DF0AD0001C38F4509540953095A0
:1015200021953F4F4F4F5F4F0895F6F79095809567
:10153000709561957F4F8F4F9F4F0895AA1BBB1BDE
:1015400051E107C0AA1FBB1FA617B70710F0A61BC3
:10155000B70B881F991F5A95A9F780959095BC01E4
:10156000CD010895EE0FFF1F0590F491E02D099431
:04157000F894FFCF1D
:1015740054656D706F3A200020426F74746F6E650D
:101584003A200020537461746F3A2000426F7474DF
:101594006F6E65207072656D75746F207069752744
:1015A40020646920006D73004269616E636F2100DD
:1015B400526F73736F210056657264652100426C2B
:1015C4007521004769616C6C6F21004D6167656E20
:1015D400746121004369616E6F2100477269676914
:1015E4006F21005465616C21004172616E63696F03
:1015F4006E6521004F6C6976612100506F72706FC7
:10160400726121005061737361746F20696C20747E
:10161400656D706F206D617373696D6F2E2E2E2052
:101624007370656E676F20747574746F004527203E
:10163400737461746F207072656D75746F20696C5A
:1016440020626F74746F72652E2E2E207370656E17
:10165400676F20747574746F0045736567756F20C8
:10166400696C2072657365742064656C20636F6EA9
:101674007461746F72652E2E2E206956616C312749
:101684003A200020416C207365636F6E646F3A20CA
:1016940000206956616C323A20004E756F766F20D7
:1016A40076616C6F7265206469206C756D696E6F0C
:1016B40073697461273A20000100000000E20965A3
:0416C400077D070097
:00000001FF
