:100000000C9462000C948A000C948A000C948A0070
:100010000C948A000C948A000C948A000C948A0038
:100020000C948A000C948A000C948A000C948A0028
:100030000C948A000C948A000C948A000C948A0018
:100040000C945E080C948A000C94350A0C948A0077
:100050000C948A000C948A000C948A000C948A00F8
:100060000C948A000C948A000000000024002700F1
:100070002A0000000000250028002B0000000000DE
:1000800023002600290004040404040404040202DA
:100090000202020203030303030301020408102007
:1000A0004080010204081020010204081020000012
:1000B0000007000201000003040600000000000029
:1000C00000007E0B11241FBECFEFD8E0DEBFCDBFF6
:1000D00011E0A0E0B1E0E4EFF8E102C005900D927C
:1000E000AE3FB107D9F712E0AEEFB1E001C01D920B
:1000F000AF3BB107E1F710E0C4ECD0E004C02297B9
:10010000FE010E943D0CC23CD107C9F70E94E007E6
:100110000C94780C0C940000AEE0B0E0E2E9F0E062
:100120000C944F0C0D891E8986E08C831A830983F9
:100130008FEF9FE79E838D839E01275E3F4FCE0109
:1001400001966F89788DA9010E94B0002F813885B2
:10015000020F131FF80110822E96E4E00C946B0C32
:10016000ABE0B0E0E6EBF0E00C94410C3C012B017D
:100170005A01FC0117821682838181FD03C06FEF53
:100180007FEFC6C19AE0892E1E010894211C311C04
:10019000F3012381F20123FD859123FF81912F013A
:1001A000882309F4B2C1853239F423FD859123FFF8
:1001B00081912F01853229F490E0B3010E94A302BE
:1001C000E7CF982FFF24EE249924FFE1FF15D0F00C
:1001D0009B3269F09C3228F4903259F0933291F4BA
:1001E0000EC09D3249F0903369F441E024C052E0E2
:1001F000F52A84E0F82A28C098E0F92A25C0E0E131
:10020000FE2A22C0F7FC29C0892F80538A3070F45F
:10021000F6FE05C0989C902C1124980E15C0E89C01
:10022000E02C1124E80EF0E2FF2A0EC09E3229F4E1
:10023000F6FC6BC140E4F42A07C09C3619F450E880
:10024000F52A02C0983649F4F20123FD959123FF67
:1002500091912F01992309F0B8CF892F85548330CC
:1002600018F08052833038F444E050E0A40EB51EFC
:100270005FE359830FC0933631F0933779F09335AC
:1002800009F056C020C0F5018081898342E050E02A
:10029000A40EB51E610101E010E012C0F501C0809E
:1002A000D180F6FC03C06FEF7FEF02C0692D70E0D4
:1002B00042E050E0A40EB51EC6010E9498028C01D7
:1002C0005FE7F52214C0F501C080D180F6FC03C0C1
:1002D0006FEF7FEF02C0692D70E042E050E0A40EA6
:1002E000B51EC6010E948D028C0150E8F52AF3FE6E
:1002F00007C01AC080E290E0B3010E94A302EA9412
:100300008E2D90E008171907A8F30EC0F601F7FC30
:100310008591F7FE81916F0190E0B3010E94A302E5
:10032000E110EA94015010400115110579F7EAC077
:10033000943611F0993669F5F7FE08C0F501208171
:1003400031814281538184E090E00AC0F5018081CF
:1003500091819C01442737FD4095542F82E090E025
:10036000A80EB91E9FE6F92257FF09C05095409587
:10037000309521953F4F4F4F5F4FE0E8FE2ACA016D
:10038000B901A1012AE030E00E94CF02D82ED21894
:1003900040C0953729F41F2D1F7E2AE030E01DC094
:1003A0001F2D197F9F3661F0903720F4983509F0A2
:1003B000ACC00FC0903739F0983709F0A6C004C020
:1003C00028E030E00AC0106114FD146020E130E044
:1003D00004C014FD166020E132E017FF08C0F501EB
:1003E000608171818281938144E050E008C0F50111
:1003F00080819181BC0180E090E042E050E0A40E59
:10040000B51EA1010E94CF02D82ED2188FE7F82E78
:10041000F122F6FE0BC05EEFF522D91438F4F4FE9B
:1004200007C0F2FC05C08FEEF82202C01D2D01C0EE
:10043000192DF4FE0DC0FE01ED0DF11D80818033FC
:1004400019F499EEF92208C01F5FF2FE05C003C03F
:100450008F2D867809F01F5F0F2DF3FC14C0F0FE7E
:100460000FC01E1510F09D2C0BC09D2C9E0C911AD8
:100470001E2D06C080E290E0B3010E94A3021F5F20
:100480001E15C0F304C01E1510F4E11A01C0EE24BD
:1004900004FF0FC080E390E0B3010E94A30202FFBB
:1004A0001DC001FD03C088E790E00EC088E590E024
:1004B0000BC0802F867891F001FF02C08BE201C053
:1004C00080E2F7FC8DE290E0B3010E94A30206C037
:1004D00080E390E0B3010E94A3029A94D914C0F380
:1004E000DA94F101ED0DF11D808190E0B3010E94DD
:1004F000A302DD20A9F706C080E290E0B3010E94CC
:10050000A302EA94EE20C1F743CEF301668177811E
:10051000CB012B96E2E10C945D0CFC01059061503F
:1005200070400110D8F7809590958E0F9F1F089509
:10053000FC016150704001900110D8F780959095B2
:100540008E0F9F1F08950F931F93CF93DF938C01FE
:10055000EB018B8181FF1BC082FF0DC02E813F818B
:100560008C819D812817390764F4E881F981019312
:10057000F983E88306C0E885F985802F0995892BE2
:1005800031F48E819F8101969F838E8302C00FEF8D
:100590001FEFC801DF91CF911F910F910895FA01CC
:1005A000AA27283051F1203181F1E8946F936E7FB2
:1005B0006E5F7F4F8F4F9F4FAF4FB1E03ED0B4E0A3
:1005C0003CD0670F781F891F9A1FA11D680F791FE4
:1005D0008A1F911DA11D6A0F711D811D911DA11DF5
:1005E00020D009F468943F912AE0269F1124301905
:1005F000305D3193DEF6CF010895462F4770405DA0
:100600004193B3E00FD0C9F7F6CF462F4F70405D4E
:100610004A3318F0495D31FD4052419302D0A9F7A9
:10062000EACFB4E0A6959795879577956795BA95A3
:10063000C9F700976105710508959B01AC010A2E69
:1006400006945795479537952795BA95C9F7620F40
:10065000731F841F951FA01D08958CEA92E040E847
:1006600055E260E070E00E94720A08951F939C01B9
:10067000162F8CEA92E0B9010E940B0A113031F476
:100680008CEA92E060E071E00E942A0A1F910895CE
:1006900083E060E070E00E9405086AE070E080E0BE
:1006A00090E00E94B40883E06FEF70E00E940508BC
:1006B0006AE070E080E090E00E94B40808958BE06A
:1006C00060E070E00E9405088AE060E070E00E944F
:1006D000050889E06FEF70E00E94050808958BE03F
:1006E00060E070E00E9405088AE06FEF70E00E9411
:1006F000050889E060E070E00E94050808958BE03D
:100700006FEF70E00E9405088AE060E070E00E94F0
:10071000050889E060E070E00E94050808958BE01C
:1007200060E070E00E9405088AE060E070E00E94EE
:10073000050889E060E070E00E94050808958BE0FC
:100740006FEF70E00E9405088AE06FEF70E00E9492
:10075000050889E06FEF70E00E9405080895CF92C8
:10076000DF92EF92FF920F931F93DF93CF93CDB75A
:10077000DEB764970FB6F894DEBF0FBECDBF80E042
:100780000E94E7079093FF018093FE010E94A60854
:1007900028EE33E040E050E00E94EA0B20930F0285
:1007A0003093100240931102509312028CE00E9489
:1007B000850990930502809304028DB79EB7089730
:1007C0000FB6F8949EBF0FBE8DBFEDB7FEB7319642
:1007D0008E010F5F1F4FADB7BEB712961C930E93DD
:1007E000119781E091E09383828380910F02909131
:1007F0001002A0911102B091120284839583A68306
:10080000B7830E948C008DB79EB708960FB6F894F8
:100810009EBF0FBE8DBF84E091E060E00E94360372
:10082000C80160E00E9436038CE091E060E00E9425
:10083000360300D000D000D0EDB7FEB73196ADB78B
:10084000BEB712961C930E93119787E191E09383A4
:1008500082838091040290910502958384830E9493
:100860008C008DB79EB706960FB6F8949EBF0FBE4C
:100870008DBFC80160E00E943603209104023091D0
:1008800005022130310541F5809106029091070261
:10089000892B11F58091080290910902281B390BD0
:1008A00030930902209308020E94A6086093130265
:1008B0007093140280931502909316026EE170E01B
:1008C00080E090E00E94B4088091080290910902B3
:1008D000019711F40E945F038AE191E060E00E94B9
:1008E000360300D000D000D0EDB7FEB731968E01B0
:1008F0000F5F1F4FADB7BEB712961C930E931197A3
:1009000027E1E22E21E0F22EF382E28280910802BA
:1009100090910902958384830E948C008DB79EB7C5
:1009200006960FB6F8949EBF0FBE8DBFC80161E05A
:100930000E9436038091040290910502019709F00C
:1009400069C18091060290910702019709F062C186
:100950008091080290910902019709F05BC10E9401
:10096000A608209113023091140240911502509173
:100970001602621B730B840B950B61547F41804000
:10098000904008F443C083E291E060E00E943603A7
:1009900000D000D000D0EDB7FEB73196ADB7BEB7EE
:1009A00012961C930E931197F382E28280E49FE1EA
:1009B000958384830E948C008DB79EB706960FB6F0
:1009C000F8949EBF0FBE8DBFC80160E00E94360341
:1009D0008CE391E061E00E9436030E949F03109235
:1009E0000B0210920A020BC00E94480380910A0277
:1009F00090910B02019690930B0280930A028091D2
:100A00000A0290910B0288977CF304C10E94A60809
:100A10002091130230911402409115025091160258
:100A2000621B730B840B950B61577741804090409C
:100A300008F443C083E291E060E00E94360300D0F6
:100A400000D000D0EDB7FEB73196ADB7BEB7129665
:100A50001C930E931197F382E28280E797E19583CE
:100A600084830E948C008DB79EB706960FB6F894CB
:100A70009EBF0FBE8DBFC80160E00E9436038CE3AD
:100A800091E061E00E9436030E948F0310920B02F6
:100A900010920A020BC00E94480380910A029091B2
:100AA0000B02019690930B0280930A0280910A0236
:100AB00090910B0288977CF3ADC00E94A60820910C
:100AC0001302309114024091150250911602621BDC
:100AD000730B840B950B615A7F408040904008F463
:100AE00043C083E291E060E00E94360300D000D072
:100AF00000D0EDB7FEB73196ADB7BEB712961C93D6
:100B00000E931197F382E28280EA9FE095838483BB
:100B10000E948C008DB79EB706960FB6F8949EBFC4
:100B20000FBE8DBFC80160E00E9436038CE391E0E8
:100B300061E00E9436030E947F0310920B02109224
:100B40000A020BC00E94480380910A0290910B0296
:100B5000019690930B0280930A0280910A02909171
:100B60000B0288977CF356C00E94A60820911302BE
:100B7000309114024091150250911602621B730BC2
:100B8000840B950B615D77408040904008F442C033
:100B900083E291E060E00E94360300D000D000D0F4
:100BA000EDB7FEB73196ADB7BEB712961C930E9354
:100BB0001197F382E28280ED97E0958384830E940F
:100BC0008C008DB79EB706960FB6F8949EBF0FBEE9
:100BD0008DBFC80160E00E9436038CE391E061E0C4
:100BE0000E9436030E946F0310920B0210920A02B9
:100BF0000BC00E94480380910A0290910B0201965B
:100C000090930B0280930A0280910A0290910B024A
:100C100088977CF3809104029091050290930702DB
:100C2000809306028091080290910902892B09F0B5
:100C300099C00E948F0385E00E94E70790930D0200
:100C400080930C02C3970CF48DC00E94A608609399
:100C50001702709318028093190290931A0281E090
:100C600080930E028091FE019091FF0186349105E0
:100C70007CF080910002909101028634910544F04D
:100C80008091020290910302863491050CF06AC0B3
:100C900010920B0210920A020BC00E94480380912E
:100CA0000A0290910B02019690930B0280930A0224
:100CB00080910A0290910B020A977CF380911702AF
:100CC000909118028370907090930B0280930A02A7
:100CD0008130910579F0823091051CF4892B39F02F
:100CE00011C08230910549F0039761F409C00E9458
:100CF0005F0308C00E946F0305C00E947F0302C00B
:100D00000E949F030E94A6082091170230911802AA
:100D10004091190250911A02621B730B840B950BC0
:100D200068547E4E8040904038F010920E028FE35F
:100D300091E061E00E9436038CE00E9485090197F2
:100D400039F410920E0288E691E061E00E943603C9
:100D500064E670E080E090E00E94B40880910E02AA
:100D6000882381F680910F0290911002A0911102C8
:100D7000B091120220911B0230911C0240911D0281
:100D800050911E02821B930BA40BB50B0797A10574
:100D9000B10508F400C184E991E060E00E943603E7
:100DA00000D000D000D0EDB7FEB731968E010F5FB6
:100DB0001F4FADB7BEB712961C930E93119797E1D4
:100DC000E92E91E0F92EF382E28280910002909167
:100DD0000102958384830E948C008DB79EB706968E
:100DE0000FB6F8949EBF0FBE8DBFC80160E00E9491
:100DF00036038EEB91E060E00E943603ADB7BEB7DC
:100E000018970FB6F894BEBF0FBEADBFEDB7FEB7D3
:100E1000319612961C930E93119781E0C82E81E0B3
:100E2000D82ED382C28280911B0290911C02A09185
:100E30001D02B0911E0284839583A683B7830E940E
:100E40008C008DB79EB708960FB6F8949EBF0FBE64
:100E50008DBFC80160E00E9436038CEC91E060E039
:100E60000E94360300D000D000D0EDB7FEB7319617
:100E7000ADB7BEB712961C930E931197F382E28220
:100E80008091020290910302958384830E948C00DA
:100E90008DB79EB706960FB6F8949EBF0FBE8DBF56
:100EA000C80161E00E94360385ED91E060E00E9498
:100EB000360300D000D000D0EDB7FEB73196ADB705
:100EC000BEB712961C930E931197F382E282809123
:100ED000FE019091FF01958384830E948C008DB761
:100EE0009EB706960FB6F8949EBF0FBE8DBFC80181
:100EF00060E00E9436038EEB91E060E00E943603D2
:100F0000ADB7BEB718970FB6F894BEBF0FBEADBF52
:100F1000EDB7FEB7319612961C930E931197D382BC
:100F2000C28280910F0290911002A0911102B091A3
:100F3000120284839583A683B7830E948C008DB7A9
:100F40009EB708960FB6F8949EBF0FBE8DBFC8011E
:100F500061E00E94360380910F0290911002A091EF
:100F60001102B091120280931B0290931C02A09375
:100F70001D02B0931E028091000290910102909395
:100F80000302809302028091FE019091FF019093F1
:100F90000102809300026CE271E080E090E00E9428
:100FA000B40864960FB6F894DEBF0FBECDBFCF91E4
:100FB000DF911F910F91FF90EF90DF90CF900895F8
:100FC0000E94DE080E942D030E94AF03FDCF8F70A8
:100FD0009091F3019295990F990F907C982B909393
:100FE0007C0080917A00806480937A0080917A00FE
:100FF00086FDFCCF2091780040917900942F80E00D
:1010000030E0282B392BC90108951F93CF93DF932C
:10101000182FEB0161E00E941809E12FF0E0E25582
:10102000FF4F8491833051F48091800080688093D9
:101030008000D0938900C09388003CC0843051F474
:1010400080918000806280938000D0938B00C09359
:101050008A0030C0813039F4209729F184B5806846
:1010600084BDC7BD27C0823039F42097E1F084B534
:10107000806284BDC8BD1EC0863041F48091B0003E
:1010800080688093B000C093B30014C0873041F4EF
:101090008091B00080628093B000C093B4000AC019
:1010A000C038D1051CF4812F60E002C0812F61E0BF
:1010B0000E943809DF91CF911F9108951F920F92DE
:1010C0000FB60F9211242F933F938F939F93AF935B
:1010D000BF938091230290912402A0912502B091A8
:1010E0002602309127020196A11DB11D232F2D5FED
:1010F0002D3720F02D570196A11DB11D20932702F9
:101100008093230290932402A0932502B093260299
:1011100080911F0290912002A0912102B0912202A1
:101120000196A11DB11D80931F0290932002A093F0
:101130002102B0932202BF91AF919F918F913F9175
:101140002F910F900FBE0F901F9018958FB7F894A6
:1011500020912302309124024091250250912602D1
:101160008FBFB901CA010895EF92FF920F931F93A9
:101170007B018C018FB7F894409123025091240297
:1011800060912502709126028FBF2FB7F89480914D
:10119000230290912402A0912502B09126022FBF34
:1011A000841B950BA60BB70BE816F9060A071B075D
:1011B00060F71F910F91FF90EF900895789484B598
:1011C000826084BD84B5816084BD85B5826085BD43
:1011D00085B5816085BDEEE6F0E080818160808329
:1011E000E1E8F0E08081826080838081816080839B
:1011F000E0E8F0E0808181608083E1EBF0E08081D5
:1012000084608083E0EBF0E0808181608083EAE7A6
:10121000F0E080818460808380818260808380812F
:10122000816080838081806880831092C1000895EE
:10123000282F30E0C90186569F4FFC0194912A5710
:101240003F4FF9018491882391F0E82FF0E0EE0FF1
:10125000FF1FE859FF4FA591B491662329F48C91A3
:10126000909589238C9308958C91892B8C93089564
:10127000482F50E0CA0182559F4FFC012491CA01BA
:1012800086569F4FFC0194914A575F4FFA01349163
:101290003323D1F1222331F1233021F480918000D6
:1012A0008F7705C0243031F4809180008F7D80934A
:1012B000800018C0213019F484B58F7704C0223023
:1012C00021F484B58F7D84BD0DC0263021F480913A
:1012D000B0008F7705C0273029F48091B0008F7D52
:1012E0008093B000E32FF0E0EE0FFF1FEE58FF4FAA
:1012F000A591B491662329F48C91909589238C93C0
:1013000008958C91892B8C930895682F70E0CB0100
:1013100082559F4FFC012491CB0186569F4FFC01C3
:1013200044916A577F4FFB019491992319F420E06F
:1013300030E038C0222331F1233021F48091800045
:101340008F7705C0243031F4809180008F7D8093A9
:10135000800018C0213019F484B58F7704C0223082
:1013600021F484B58F7D84BD0DC0263021F4809199
:10137000B0008F7705C0273029F48091B0008F7DB1
:101380008093B000892F90E0880F991F84589F4F59
:10139000FC01A591B4918C9120E030E0842311F000
:1013A00021E030E0C90108950F931F93CF93DF939D
:1013B0008C01EB0109C02196D801ED91FC910190BF
:1013C000F081E02DC801099568816623A1F7DF91BE
:1013D000CF911F910F910895EF92FF920F931F935A
:1013E000CF93DF938C017B01EA010CC0D7016D9193
:1013F0007D01D801ED91FC910190F081E02DC801B3
:1014000009952197209791F7DF91CF911F910F9127
:10141000FF90EF900895DC01ED91FC910280F38143
:10142000E02D099508950F931F938C01DC01ED9138
:10143000FC910190F081E02D6DE00995D801ED91CE
:10144000FC910190F081E02DC8016AE009951F919F
:101450000F9108950F931F938C010E940B0AC801EE
:101460000E94130A1F910F9108951F920F920FB6B9
:101470000F9211242F933F934F935F936F937F931A
:101480008F939F93AF93BF93EF93FF934091C600C9
:10149000E091A802F091A902CF01019660E870E006
:1014A0000E94D70B9C018091AA029091AB02281751
:1014B000390739F0E85DFD4F40833093A90220934E
:1014C000A802FF91EF91BF91AF919F918F917F9172
:1014D0006F915F914F913F912F910F900FBE0F90A1
:1014E0001F9018955F926F927F928F929F92AF920A
:1014F000BF92CF92DF92EF92FF920F931F93CF9301
:10150000DF93EC013A014B01413482E458078FE04C
:10151000680780E078070CF07FC060E874E88EE12F
:1015200090E0A40193010E940C0C215030404040F7
:101530005040CA01B90122E030E040E050E00E9492
:101540000C0C59016A01A601950120953095409532
:10155000509594E0220F331F441F551F9A95D1F7E1
:1015600060E074E284EF90E00E940C0CCA01B901C3
:101570002FEF30E040E050E00E94B80BA40193014F
:101580000E940C0CC90181509F4F181619061CF4BB
:10159000522E5A9403C055245394521A60E079E0B5
:1015A0008DE390E0A40193010E940C0C2150304087
:1015B00040405040CA01B90122E030E040E050E034
:1015C0000E940C0C209530954095509583E0220F99
:1015D000331F441F551F8A95D1F760E074E284EFF2
:1015E00090E00E940C0CCA01B9012FEF30E040E0FE
:1015F00050E00E94B80BA40193010E940C0CC90199
:1016000081509F4F181619061CF4822F815002C07A
:1016100081E0821B851500F5E885F98581E090E081
:101620000A8802C0880F991F0A94E2F7808360E05D
:1016300079E08DE390E0A40193010E940C0C21500D
:10164000304040405040CA01B90122E030E040E063
:1016500050E00E940C0C04C0E885F98510829501C9
:10166000EC81FD813083EE81FF812083EA85FB855B
:10167000208141E050E0CA010E8402C0880F991F0A
:101680000A94E2F7282B2083EA85FB852081CA0192
:101690000F8402C0880F991F0A94E2F7282B208339
:1016A000EA85FB858081088802C0440F551F0A9493
:1016B000E2F7842B8083DF91CF911F910F91FF90F0
:1016C000EF90DF90CF90BF90AF909F908F907F90E2
:1016D0006F905F900895FC01A085B18521898C9160
:1016E00090E0022E02C0959587950A94E2F780FF5C
:1016F000F6CF0484F585E02D6083089588EF91E0AE
:101700009093AD028093AC0288E292E09093AF0296
:101710008093AE0285EC90E09093B1028093B0028A
:1017200084EC90E09093B3028093B20280EC90E05E
:101730009093B5028093B40281EC90E09093B7024D
:101740008093B60286EC90E09093B9028093B80241
:1017500084E08093BA0283E08093BB0287E08093A9
:10176000BC0285E08093BD0281E08093BE020895B3
:10177000629FD001739FF001829FE00DF11D649F75
:10178000E00DF11D929FF00D839FF00D749FF00D01
:10179000659FF00D9927729FB00DE11DF91F639FA2
:1017A000B00DE11DF91FBD01CF011124089597FB74
:1017B000092E07260AD077FD04D049D006D0002094
:1017C0001AF4709561957F4F0895F6F7909581957D
:1017D0009F4F0895A1E21A2EAA1BBB1BFD010DC04D
:1017E000AA1FBB1FEE1FFF1FA217B307E407F507D1
:1017F00020F0A21BB30BE40BF50B661F771F881FAD
:10180000991F1A9469F760957095809590959B0142
:10181000AC01BD01CF01089597FB092E05260ED01E
:1018200057FD04D0D7DF0AD0001C38F450954095FE
:10183000309521953F4F4F4F5F4F0895F6F79095A4
:101840008095709561957F4F8F4F9F4F0895AA1B8C
:10185000BB1B51E107C0AA1FBB1FA617B70710F09B
:10186000A61BB70B881F991F5A95A9F780959095CD
:10187000BC01CD010895EE0FFF1F0590F491E02DFE
:1018800009942F923F924F925F926F927F928F9224
:101890009F92AF92BF92CF92DF92EF92FF920F93FF
:1018A0001F93CF93DF93CDB7DEB7CA1BDB0B0FB609
:1018B000F894DEBF0FBECDBF09942A8839884888C6
:1018C0005F846E847D848C849B84AA84B984C8845C
:1018D000DF80EE80FD800C811B81AA81B981CE0F53
:1018E000D11D0FB6F894DEBF0FBECDBFED01089538
:0418F000F894FFCF9A
:1018F4000025750054656D706F3A200020426F74A6
:10190400746F6E653A200025690020537461746F0A
:101914003A2000426F74746F6E65207072656D7545
:10192400746F207069752720646920006D730050FE
:1019340061737361746F20696C2074656D706F20BE
:101944006D617373696D6F2E2E2E207370656E67D3
:101954006F20747574746F00452720737461746FFD
:10196400207072656D75746F20696C20626F747479
:101974006F72652E2E2E207370656E676F207475DE
:1019840074746F0045736567756F20696C207265A8
:101994007365742064656C20636F6E7461746F7218
:1019A400652E2E2E206956616C31273A2000204185
:1019B4006C207365636F6E646F3A20002069566112
:1019C4006C323A20004E756F766F2076616C6F72C0
:1019D40065206469206C756D696E6F736974612725
:0E19E4003A200001000000006B0BD409EC0952
:00000001FF
